{
    "contractName": "NBCoin",
    "abi": [
        {
            "inputs": [],
            "stateMutability": "nonpayable",
            "type": "constructor"
        },
        {
            "anonymous": false,
            "inputs": [
                {
                    "indexed": true,
                    "internalType": "address",
                    "name": "owner",
                    "type": "address"
                },
                {
                    "indexed": true,
                    "internalType": "address",
                    "name": "spender",
                    "type": "address"
                },
                {
                    "indexed": false,
                    "internalType": "uint256",
                    "name": "value",
                    "type": "uint256"
                }
            ],
            "name": "Approval",
            "type": "event"
        },
        {
            "anonymous": false,
            "inputs": [
                {
                    "indexed": true,
                    "internalType": "address",
                    "name": "_owner",
                    "type": "address"
                },
                {
                    "indexed": true,
                    "internalType": "address",
                    "name": "_spender",
                    "type": "address"
                },
                {
                    "indexed": false,
                    "internalType": "uint256",
                    "name": "_oldValue",
                    "type": "uint256"
                },
                {
                    "indexed": false,
                    "internalType": "uint256",
                    "name": "_value",
                    "type": "uint256"
                }
            ],
            "name": "Approved",
            "type": "event"
        },
        {
            "anonymous": false,
            "inputs": [
                {
                    "indexed": true,
                    "internalType": "address",
                    "name": "by",
                    "type": "address"
                },
                {
                    "indexed": true,
                    "internalType": "address",
                    "name": "from",
                    "type": "address"
                },
                {
                    "indexed": false,
                    "internalType": "uint256",
                    "name": "value",
                    "type": "uint256"
                }
            ],
            "name": "Burnt",
            "type": "event"
        },
        {
            "anonymous": false,
            "inputs": [
                {
                    "indexed": true,
                    "internalType": "address",
                    "name": "_of",
                    "type": "address"
                },
                {
                    "indexed": true,
                    "internalType": "address",
                    "name": "_from",
                    "type": "address"
                },
                {
                    "indexed": true,
                    "internalType": "address",
                    "name": "_to",
                    "type": "address"
                }
            ],
            "name": "DelegateChanged",
            "type": "event"
        },
        {
            "anonymous": false,
            "inputs": [
                {
                    "indexed": true,
                    "internalType": "address",
                    "name": "from",
                    "type": "address"
                },
                {
                    "indexed": true,
                    "internalType": "address",
                    "name": "to",
                    "type": "address"
                },
                {
                    "indexed": false,
                    "internalType": "uint256",
                    "name": "value",
                    "type": "uint256"
                }
            ],
            "name": "Minted",
            "type": "event"
        },
        {
            "anonymous": false,
            "inputs": [
                {
                    "indexed": false,
                    "internalType": "address",
                    "name": "account",
                    "type": "address"
                }
            ],
            "name": "Paused",
            "type": "event"
        },
        {
            "anonymous": false,
            "inputs": [
                {
                    "indexed": true,
                    "internalType": "address",
                    "name": "from",
                    "type": "address"
                },
                {
                    "indexed": true,
                    "internalType": "address",
                    "name": "to",
                    "type": "address"
                },
                {
                    "indexed": false,
                    "internalType": "uint256",
                    "name": "value",
                    "type": "uint256"
                }
            ],
            "name": "Transfer",
            "type": "event"
        },
        {
            "anonymous": false,
            "inputs": [
                {
                    "indexed": true,
                    "internalType": "address",
                    "name": "_by",
                    "type": "address"
                },
                {
                    "indexed": true,
                    "internalType": "address",
                    "name": "_from",
                    "type": "address"
                },
                {
                    "indexed": true,
                    "internalType": "address",
                    "name": "_to",
                    "type": "address"
                },
                {
                    "indexed": false,
                    "internalType": "uint256",
                    "name": "_value",
                    "type": "uint256"
                }
            ],
            "name": "Transferred",
            "type": "event"
        },
        {
            "anonymous": false,
            "inputs": [
                {
                    "indexed": false,
                    "internalType": "address",
                    "name": "account",
                    "type": "address"
                }
            ],
            "name": "Unpaused",
            "type": "event"
        },
        {
            "anonymous": false,
            "inputs": [
                {
                    "indexed": true,
                    "internalType": "address",
                    "name": "_of",
                    "type": "address"
                },
                {
                    "indexed": false,
                    "internalType": "uint256",
                    "name": "_fromVal",
                    "type": "uint256"
                },
                {
                    "indexed": false,
                    "internalType": "uint256",
                    "name": "_toVal",
                    "type": "uint256"
                }
            ],
            "name": "VotingPowerChanged",
            "type": "event"
        },
        {
            "inputs": [],
            "name": "DELEGATION_TYPEHASH",
            "outputs": [
                {
                    "internalType": "bytes32",
                    "name": "",
                    "type": "bytes32"
                }
            ],
            "stateMutability": "view",
            "type": "function"
        },
        {
            "inputs": [],
            "name": "DOMAIN_TYPEHASH",
            "outputs": [
                {
                    "internalType": "bytes32",
                    "name": "",
                    "type": "bytes32"
                }
            ],
            "stateMutability": "view",
            "type": "function"
        },
        {
            "inputs": [],
            "name": "admin",
            "outputs": [
                {
                    "internalType": "address",
                    "name": "",
                    "type": "address"
                }
            ],
            "stateMutability": "view",
            "type": "function"
        },
        {
            "inputs": [
                {
                    "internalType": "address",
                    "name": "_owner",
                    "type": "address"
                },
                {
                    "internalType": "address",
                    "name": "spender",
                    "type": "address"
                }
            ],
            "name": "allowance",
            "outputs": [
                {
                    "internalType": "uint256",
                    "name": "",
                    "type": "uint256"
                }
            ],
            "stateMutability": "view",
            "type": "function"
        },
        {
            "inputs": [
                {
                    "internalType": "address",
                    "name": "spender",
                    "type": "address"
                },
                {
                    "internalType": "uint256",
                    "name": "amount",
                    "type": "uint256"
                }
            ],
            "name": "approve",
            "outputs": [
                {
                    "internalType": "bool",
                    "name": "",
                    "type": "bool"
                }
            ],
            "stateMutability": "nonpayable",
            "type": "function"
        },
        {
            "inputs": [
                {
                    "internalType": "address",
                    "name": "account",
                    "type": "address"
                }
            ],
            "name": "balanceOf",
            "outputs": [
                {
                    "internalType": "uint256",
                    "name": "",
                    "type": "uint256"
                }
            ],
            "stateMutability": "view",
            "type": "function"
        },
        {
            "inputs": [
                {
                    "internalType": "address",
                    "name": "_from",
                    "type": "address"
                },
                {
                    "internalType": "uint256",
                    "name": "_amount",
                    "type": "uint256"
                }
            ],
            "name": "burn",
            "outputs": [
                {
                    "internalType": "bool",
                    "name": "",
                    "type": "bool"
                }
            ],
            "stateMutability": "nonpayable",
            "type": "function"
        },
        {
            "inputs": [],
            "name": "burner",
            "outputs": [
                {
                    "internalType": "address",
                    "name": "",
                    "type": "address"
                }
            ],
            "stateMutability": "view",
            "type": "function"
        },
        {
            "inputs": [],
            "name": "ceo",
            "outputs": [
                {
                    "internalType": "address",
                    "name": "",
                    "type": "address"
                }
            ],
            "stateMutability": "view",
            "type": "function"
        },
        {
            "inputs": [],
            "name": "decimals",
            "outputs": [
                {
                    "internalType": "uint8",
                    "name": "",
                    "type": "uint8"
                }
            ],
            "stateMutability": "view",
            "type": "function"
        },
        {
            "inputs": [
                {
                    "internalType": "address",
                    "name": "spender",
                    "type": "address"
                },
                {
                    "internalType": "uint256",
                    "name": "subtractedValue",
                    "type": "uint256"
                }
            ],
            "name": "decreaseAllowance",
            "outputs": [
                {
                    "internalType": "bool",
                    "name": "",
                    "type": "bool"
                }
            ],
            "stateMutability": "nonpayable",
            "type": "function"
        },
        {
            "inputs": [
                {
                    "internalType": "address",
                    "name": "_to",
                    "type": "address"
                }
            ],
            "name": "delegate",
            "outputs": [],
            "stateMutability": "nonpayable",
            "type": "function"
        },
        {
            "inputs": [
                {
                    "internalType": "address",
                    "name": "_to",
                    "type": "address"
                },
                {
                    "internalType": "uint256",
                    "name": "_nonce",
                    "type": "uint256"
                },
                {
                    "internalType": "uint256",
                    "name": "_exp",
                    "type": "uint256"
                },
                {
                    "internalType": "uint8",
                    "name": "v",
                    "type": "uint8"
                },
                {
                    "internalType": "bytes32",
                    "name": "r",
                    "type": "bytes32"
                },
                {
                    "internalType": "bytes32",
                    "name": "s",
                    "type": "bytes32"
                }
            ],
            "name": "delegateWithSig",
            "outputs": [],
            "stateMutability": "nonpayable",
            "type": "function"
        },
        {
            "inputs": [
                {
                    "internalType": "address",
                    "name": "_of",
                    "type": "address"
                }
            ],
            "name": "getVotingPower",
            "outputs": [
                {
                    "internalType": "uint256",
                    "name": "",
                    "type": "uint256"
                }
            ],
            "stateMutability": "view",
            "type": "function"
        },
        {
            "inputs": [
                {
                    "internalType": "address",
                    "name": "_of",
                    "type": "address"
                },
                {
                    "internalType": "uint256",
                    "name": "_blockNum",
                    "type": "uint256"
                }
            ],
            "name": "getVotingPowerAt",
            "outputs": [
                {
                    "internalType": "uint256",
                    "name": "",
                    "type": "uint256"
                }
            ],
            "stateMutability": "view",
            "type": "function"
        },
        {
            "inputs": [
                {
                    "internalType": "address",
                    "name": "_of",
                    "type": "address"
                }
            ],
            "name": "getVotingPowerHistory",
            "outputs": [
                {
                    "components": [
                        {
                            "internalType": "uint64",
                            "name": "blockNumber",
                            "type": "uint64"
                        },
                        {
                            "internalType": "uint192",
                            "name": "votingPower",
                            "type": "uint192"
                        }
                    ],
                    "internalType": "struct NBCoin.VotingPowerRecord[]",
                    "name": "",
                    "type": "tuple[]"
                }
            ],
            "stateMutability": "view",
            "type": "function"
        },
        {
            "inputs": [
                {
                    "internalType": "address",
                    "name": "_of",
                    "type": "address"
                }
            ],
            "name": "getVotingPowerHistoryLength",
            "outputs": [
                {
                    "internalType": "uint256",
                    "name": "",
                    "type": "uint256"
                }
            ],
            "stateMutability": "view",
            "type": "function"
        },
        {
            "inputs": [
                {
                    "internalType": "address",
                    "name": "spender",
                    "type": "address"
                },
                {
                    "internalType": "uint256",
                    "name": "addedValue",
                    "type": "uint256"
                }
            ],
            "name": "increaseAllowance",
            "outputs": [
                {
                    "internalType": "bool",
                    "name": "",
                    "type": "bool"
                }
            ],
            "stateMutability": "nonpayable",
            "type": "function"
        },
        {
            "inputs": [],
            "name": "manager",
            "outputs": [
                {
                    "internalType": "address",
                    "name": "",
                    "type": "address"
                }
            ],
            "stateMutability": "view",
            "type": "function"
        },
        {
            "inputs": [
                {
                    "internalType": "address",
                    "name": "_to",
                    "type": "address"
                },
                {
                    "internalType": "uint256",
                    "name": "_amount",
                    "type": "uint256"
                }
            ],
            "name": "mint",
            "outputs": [
                {
                    "internalType": "bool",
                    "name": "",
                    "type": "bool"
                }
            ],
            "stateMutability": "nonpayable",
            "type": "function"
        },
        {
            "inputs": [],
            "name": "minter",
            "outputs": [
                {
                    "internalType": "address",
                    "name": "",
                    "type": "address"
                }
            ],
            "stateMutability": "view",
            "type": "function"
        },
        {
            "inputs": [],
            "name": "name",
            "outputs": [
                {
                    "internalType": "string",
                    "name": "",
                    "type": "string"
                }
            ],
            "stateMutability": "view",
            "type": "function"
        },
        {
            "inputs": [
                {
                    "internalType": "address",
                    "name": "_newAdmin",
                    "type": "address"
                }
            ],
            "name": "newAdmin",
            "outputs": [],
            "stateMutability": "nonpayable",
            "type": "function"
        },
        {
            "inputs": [
                {
                    "internalType": "address",
                    "name": "_newBurner",
                    "type": "address"
                }
            ],
            "name": "newBurner",
            "outputs": [],
            "stateMutability": "nonpayable",
            "type": "function"
        },
        {
            "inputs": [
                {
                    "internalType": "address",
                    "name": "_newCEO",
                    "type": "address"
                }
            ],
            "name": "newCEO",
            "outputs": [],
            "stateMutability": "nonpayable",
            "type": "function"
        },
        {
            "inputs": [
                {
                    "internalType": "address",
                    "name": "_newManager",
                    "type": "address"
                }
            ],
            "name": "newManager",
            "outputs": [],
            "stateMutability": "nonpayable",
            "type": "function"
        },
        {
            "inputs": [
                {
                    "internalType": "address",
                    "name": "_newMinter",
                    "type": "address"
                }
            ],
            "name": "newMinter",
            "outputs": [],
            "stateMutability": "nonpayable",
            "type": "function"
        },
        {
            "inputs": [
                {
                    "internalType": "address",
                    "name": "",
                    "type": "address"
                }
            ],
            "name": "nonces",
            "outputs": [
                {
                    "internalType": "uint256",
                    "name": "",
                    "type": "uint256"
                }
            ],
            "stateMutability": "view",
            "type": "function"
        },
        {
            "inputs": [],
            "name": "pause",
            "outputs": [],
            "stateMutability": "nonpayable",
            "type": "function"
        },
        {
            "inputs": [],
            "name": "paused",
            "outputs": [
                {
                    "internalType": "bool",
                    "name": "",
                    "type": "bool"
                }
            ],
            "stateMutability": "view",
            "type": "function"
        },
        {
            "inputs": [],
            "name": "symbol",
            "outputs": [
                {
                    "internalType": "string",
                    "name": "",
                    "type": "string"
                }
            ],
            "stateMutability": "view",
            "type": "function"
        },
        {
            "inputs": [],
            "name": "totalSupply",
            "outputs": [
                {
                    "internalType": "uint256",
                    "name": "",
                    "type": "uint256"
                }
            ],
            "stateMutability": "view",
            "type": "function"
        },
        {
            "inputs": [
                {
                    "internalType": "address",
                    "name": "recipient",
                    "type": "address"
                },
                {
                    "internalType": "uint256",
                    "name": "amount",
                    "type": "uint256"
                }
            ],
            "name": "transfer",
            "outputs": [
                {
                    "internalType": "bool",
                    "name": "",
                    "type": "bool"
                }
            ],
            "stateMutability": "nonpayable",
            "type": "function"
        },
        {
            "inputs": [
                {
                    "internalType": "address",
                    "name": "sender",
                    "type": "address"
                },
                {
                    "internalType": "address",
                    "name": "recipient",
                    "type": "address"
                },
                {
                    "internalType": "uint256",
                    "name": "amount",
                    "type": "uint256"
                }
            ],
            "name": "transferFrom",
            "outputs": [
                {
                    "internalType": "bool",
                    "name": "",
                    "type": "bool"
                }
            ],
            "stateMutability": "nonpayable",
            "type": "function"
        },
        {
            "inputs": [],
            "name": "unpause",
            "outputs": [],
            "stateMutability": "nonpayable",
            "type": "function"
        },
        {
            "inputs": [
                {
                    "internalType": "address",
                    "name": "",
                    "type": "address"
                }
            ],
            "name": "votingDelegates",
            "outputs": [
                {
                    "internalType": "address",
                    "name": "",
                    "type": "address"
                }
            ],
            "stateMutability": "view",
            "type": "function"
        },
        {
            "inputs": [
                {
                    "internalType": "address",
                    "name": "",
                    "type": "address"
                },
                {
                    "internalType": "uint256",
                    "name": "",
                    "type": "uint256"
                }
            ],
            "name": "votingPowerHistory",
            "outputs": [
                {
                    "internalType": "uint64",
                    "name": "blockNumber",
                    "type": "uint64"
                },
                {
                    "internalType": "uint192",
                    "name": "votingPower",
                    "type": "uint192"
                }
            ],
            "stateMutability": "view",
            "type": "function"
        }
    ],
    "bytecode": "60806040526a52b7d2dcc80cd2e4000000600b556a6b88921f0410abc2000000600c553480156200002f57600080fd5b506040518060400160405280600b81526020016a4e42436f696e204265746160a81b81525060405180604001604052806004815260200163272121a160e11b815250620000816200019860201b60201c565b600080546001600160a01b0319166001600160a01b0392909216919091179055620000a93390565b600180546001600160a01b0319166001600160a01b0392909216919091179055620000d13390565b600280546001600160a01b0319166001600160a01b0392909216919091179055620000f93390565b600380546001600160a01b0319166001600160a01b0392909216919091179055620001213390565b600480546001600160a81b0319166001600160a01b0392909216919091179055815162000156906008906020850190620006c8565b5080516200016c906009906020840190620006c8565b5050600a805460ff191660121790555062000191620001883390565b600b546200019c565b506200080c565b3390565b6001546000906001600160a01b0316336001600160a01b031614620001c057600080fd5b620001d4600454600160a01b900460ff1690565b156200021a5760405162461bcd60e51b815260206004820152601060248201526f14185d5cd8589b194e881c185d5cd95960821b60448201526064015b60405180910390fd5b600c54826200022860075490565b6200023491906200076e565b1115620002845760405162461bcd60e51b815260206004820152601f60248201527f42455032303a2043617020726561636865642e2043616e6e6f74206d696e7400604482015260640162000211565b620002908383620002c0565b6001600160a01b038084166000908152600d6020526040812054620002b792168462000435565b50600192915050565b6001600160a01b038216620003185760405162461bcd60e51b815260206004820152601f60248201527f42455032303a204d696e7420746f20746865207a65726f206164647265737300604482015260640162000211565b80600760008282546200032c91906200076e565b90915550506001600160a01b038216600090815260056020526040812080548392906200035b9084906200076e565b90915550506040518181526001600160a01b0383169033907f9d228d69b5fdb8d273a2336f8fb8612d039631024ea9bf09c424a9503aa078f09060200160405180910390a36001600160a01b0382166000336001600160a01b03167f769254a71d2f67d8ac6cb44f2803c0d05cfbcf9effadb6a984f10ff9de3df6c384604051620003e891815260200190565b60405180910390a46040518181526001600160a01b038316906000907fddf252ad1be2c89b69c2b068fc378daa952ba7f163c4a11628f55a4df523b3ef9060200160405180910390a35050565b816001600160a01b0316836001600160a01b0316148062000454575080155b156200045f57505050565b6001600160a01b038316156200049e5760006200047c84620004e2565b905060006200048c838362000789565b90506200049b85838362000561565b50505b6001600160a01b03821615620004dd576000620004bb83620004e2565b90506000620004cb83836200076e565b9050620004da84838362000561565b50505b505050565b6001600160a01b0381166000908152600e602052604081208054156200054e5780548190620005149060019062000789565b81548110620005275762000527620007f6565b6000918252602090912001546801000000000000000090046001600160c01b031662000551565b60005b6001600160c01b03169392505050565b6001600160a01b0383166000908152600e60205260409020805415801590620005c35750805443908290620005999060019062000789565b81548110620005ac57620005ac620007f6565b6000918252602090912001546001600160401b0316145b156200062757805482908290620005dd9060019062000789565b81548110620005f057620005f0620007f6565b9060005260206000200160000160086101000a8154816001600160c01b0302191690836001600160c01b031602179055506200067e565b604080518082019091526001600160401b0343811682526001600160c01b03808516602080850191825285546001810187556000878152919091209451915190921668010000000000000000029216919091179101555b60408051848152602081018490526001600160a01b038616917f53ed7954de66613e30dd29b46ab783aa594e6309d021d8854c76bb3325d03aa3910160405180910390a250505050565b828054620006d690620007a3565b90600052602060002090601f016020900481019282620006fa576000855562000745565b82601f106200071557805160ff191683800117855562000745565b8280016001018555821562000745579182015b828111156200074557825182559160200191906001019062000728565b506200075392915062000757565b5090565b5b8082111562000753576000815560010162000758565b60008219821115620007845762000784620007e0565b500190565b6000828210156200079e576200079e620007e0565b500390565b600181811c90821680620007b857607f821691505b60208210811415620007da57634e487b7160e01b600052602260045260246000fd5b50919050565b634e487b7160e01b600052601160045260246000fd5b634e487b7160e01b600052603260045260246000fd5b611fa0806200081c6000396000f3fe608060405234801561001057600080fd5b50600436106102275760003560e01c80637ecebe0011610130578063a6ba31c1116100b8578063dd62ed3e1161007c578063dd62ed3e14610538578063e7a324dc14610571578063eaeded5f14610598578063f840f72b146105ab578063f851a440146105be57600080fd5b8063a6ba31c1146104cc578063a9059cbb146104df578063a9917dbe146104f2578063bb4d443614610505578063ce9517cf1461051857600080fd5b8063906e9400116100ff578063906e940014610478578063908921fc1461048b57806395d89b411461049e5780639dc29fac146104a6578063a457c2d7146104b957600080fd5b80637ecebe00146103ec5780637fd491b01461040c5780638456cb591461044757806384b34a311461044f57600080fd5b8063313ce567116101b3578063481c6a7511610182578063481c6a7514610378578063573419121461038b5780635c19a95c1461039e5780635c975abb146103b157806370a08231146103c357600080fd5b8063313ce56714610335578063395093511461034a5780633f4ba83a1461035d57806340c10f191461036557600080fd5b806318160ddd116101fa57806318160ddd146102ad5780631e0fa234146102bf57806320606b70146102e857806323b872dd1461030f57806327810b6e1461032257600080fd5b806306fdde031461022c578063075461721461024a578063095ea7b31461027557806315d2c22514610298575b600080fd5b6102346105d1565b6040516102419190611e18565b60405180910390f35b60015461025d906001600160a01b031681565b6040516001600160a01b039091168152602001610241565b610288610283366004611d2c565b610663565b6040519015158152602001610241565b6102ab6102a6366004611d56565b6106ae565b005b6007545b604051908152602001610241565b61025d6102cd366004611c9b565b600d602052600090815260409020546001600160a01b031681565b6102b17f8cad95687ba82c2ce50e74f7b754645e5117c3a5bec8151c0726d5857980a86681565b61028861031d366004611cf0565b61093a565b60025461025d906001600160a01b031681565b600a5460405160ff9091168152602001610241565b610288610358366004611d2c565b610a0f565b6102ab610a77565b610288610373366004611d2c565b610b34565b60045461025d906001600160a01b031681565b6102ab610399366004611c9b565b610c15565b6102ab6103ac366004611c9b565b610c88565b600454600160a01b900460ff16610288565b6102b16103d1366004611c9b565b6001600160a01b031660009081526005602052604090205490565b6102b16103fa366004611c9b565b600f6020526000908152604090205481565b61041f61041a366004611d2c565b610c95565b6040805167ffffffffffffffff90931683526001600160c01b03909116602083015201610241565b6102ab610cdf565b6102b161045d366004611c9b565b6001600160a01b03166000908152600e602052604090205490565b6102ab610486366004611c9b565b610d64565b60035461025d906001600160a01b031681565b610234610dd7565b6102886104b4366004611d2c565b610de6565b6102886104c7366004611d2c565b610e63565b6102ab6104da366004611c9b565b610f29565b6102886104ed366004611d2c565b610f7e565b6102ab610500366004611c9b565b610fb6565b6102b1610513366004611c9b565b61100b565b61052b610526366004611c9b565b61107e565b6040516102419190611db6565b6102b1610546366004611cbd565b6001600160a01b03918216600090815260066020908152604080832093909416825291909152205490565b6102b17fff41620983935eb4d4a3c7384a066ca8c1d10cef9a5eca9eb97ca735cd14a75581565b6102b16105a6366004611d2c565b611111565b6102ab6105b9366004611c9b565b611246565b60005461025d906001600160a01b031681565b6060600880546105e090611ee8565b80601f016020809104026020016040519081016040528092919081815260200182805461060c90611ee8565b80156106595780601f1061062e57610100808354040283529160200191610659565b820191906000526020600020905b81548152906001019060200180831161063c57829003601f168201915b5050505050905090565b600454600090600160a01b900460ff16156106995760405162461bcd60e51b815260040161069090611e6d565b60405180910390fd5b6106a43384846112b9565b5060015b92915050565b60007f8cad95687ba82c2ce50e74f7b754645e5117c3a5bec8151c0726d5857980a8666106d96105d1565b8051602091820120604080518084019490945283810191909152466060840152306080808501919091528151808503909101815260a0840182528051908301207fff41620983935eb4d4a3c7384a066ca8c1d10cef9a5eca9eb97ca735cd14a75560c08501526001600160a01b038b1660e085015261010084018a90526101208085018a90528251808603909101815261014085019092528151919092012061190160f01b61016084015261016283018290526101828301819052909250906000906101a20160408051601f198184030181528282528051602091820120600080855291840180845281905260ff8a169284019290925260608301889052608083018790529092509060019060a0016020604051602081039080840390855afa15801561080a573d6000803e3d6000fd5b5050604051601f1901519150506001600160a01b0381166108615760405162461bcd60e51b8152602060048201526011602482015270696e76616c6964207369676e617475726560781b6044820152606401610690565b6001600160a01b0381166000908152600f602052604090205489146108b85760405162461bcd60e51b815260206004820152600d60248201526c696e76616c6964206e6f6e636560981b6044820152606401610690565b8742106108fb5760405162461bcd60e51b81526020600482015260116024820152701cda59db985d1d5c9948195e1c1a5c9959607a1b6044820152606401610690565b6001600160a01b0381166000908152600f6020526040812080549161091f83611f23565b919050555061092e818b6113dd565b50505050505050505050565b600454600090600160a01b900460ff16156109675760405162461bcd60e51b815260040161069090611e6d565b610972848484611478565b6001600160a01b0384166000908152600660209081526040808320338452909152902054828110156109f75760405162461bcd60e51b815260206004820152602860248201527f42455032303a205472616e7366657220616d6f756e74206578636565647320616044820152676c6c6f77616e636560c01b6064820152608401610690565b610a0485338584036112b9565b506001949350505050565b600454600090600160a01b900460ff1615610a3c5760405162461bcd60e51b815260040161069090611e6d565b3360008181526006602090815260408083206001600160a01b03881684529091529020546106a491908590610a72908690611e97565b6112b9565b600454600160a01b900460ff16610ac75760405162461bcd60e51b815260206004820152601460248201527314185d5cd8589b194e881b9bdd081c185d5cd95960621b6044820152606401610690565b6000546001600160a01b0316336001600160a01b031614610ae757600080fd5b6004805460ff60a01b191690557f5db9ee0a495bf2e6ff9c91a7834c1ba4fdd244a5e8aa4e537bd38aeae4b073aa335b6040516001600160a01b03909116815260200160405180910390a1565b6001546000906001600160a01b0316336001600160a01b031614610b5757600080fd5b600454600160a01b900460ff1615610b815760405162461bcd60e51b815260040161069090611e6d565b600c5482610b8e60075490565b610b989190611e97565b1115610be65760405162461bcd60e51b815260206004820152601f60248201527f42455032303a2043617020726561636865642e2043616e6e6f74206d696e74006044820152606401610690565b610bf08383611647565b6001600160a01b038084166000908152600d60205260408120546106a49216846117b5565b6000546001600160a01b0316336001600160a01b03161480610c4a57506003546001600160a01b0316336001600160a01b0316145b610c5357600080fd5b6001600160a01b038116610c6657600080fd5b600180546001600160a01b0319166001600160a01b0392909216919091179055565b610c9233826113dd565b50565b600e6020528160005260406000208181548110610cb157600080fd5b60009182526020909120015467ffffffffffffffff81169250600160401b90046001600160c01b0316905082565b600454600160a01b900460ff1615610d095760405162461bcd60e51b815260040161069090611e6d565b6000546001600160a01b0316336001600160a01b031614610d2957600080fd5b6004805460ff60a01b1916600160a01b1790557f62e78cea01bee320cd4e420270b5ea74000d11b0c9f74754ebdbfc544b05a258610b173390565b6000546001600160a01b0316336001600160a01b03161480610d9957506003546001600160a01b0316336001600160a01b0316145b610da257600080fd5b6001600160a01b038116610db557600080fd5b600480546001600160a01b0319166001600160a01b0392909216919091179055565b6060600980546105e090611ee8565b6002546000906001600160a01b0316336001600160a01b031614610e0957600080fd5b600454600160a01b900460ff1615610e335760405162461bcd60e51b815260040161069090611e6d565b610e3d8383611852565b6001600160a01b038084166000908152600d60205260408120546106a4921690846117b5565b600454600090600160a01b900460ff1615610e905760405162461bcd60e51b815260040161069090611e6d565b3360009081526006602090815260408083206001600160a01b038716845290915290205482811015610f125760405162461bcd60e51b815260206004820152602560248201527f42455032303a2044656372656173656420616c6c6f77616e63652062656c6f77604482015264207a65726f60d81b6064820152608401610690565b610f1f33858584036112b9565b5060019392505050565b6000546001600160a01b0316336001600160a01b031614610f4957600080fd5b6001600160a01b038116610f5c57600080fd5b600080546001600160a01b0319166001600160a01b0392909216919091179055565b600454600090600160a01b900460ff1615610fab5760405162461bcd60e51b815260040161069090611e6d565b6106a4338484611478565b6000546001600160a01b0316336001600160a01b031614610fd657600080fd5b6001600160a01b038116610fe957600080fd5b600380546001600160a01b0319166001600160a01b0392909216919091179055565b6001600160a01b0381166000908152600e6020526040812080541561106b578054819061103a90600190611ed1565b8154811061104a5761104a611f54565b600091825260209091200154600160401b90046001600160c01b031661106e565b60005b6001600160c01b03169392505050565b6001600160a01b0381166000908152600e60209081526040808320805482518185028101850190935280835260609492939192909184015b82821015611106576000848152602090819020604080518082019091529084015467ffffffffffffffff81168252600160401b90046001600160c01b0316818301528252600190920191016110b6565b505050509050919050565b60004382106111575760405162461bcd60e51b81526020600482015260126024820152711b9bdd081e595d0819195d195c9b5a5b995960721b6044820152606401610690565b6001600160a01b0383166000908152600e60205260409020805461117f5760009150506106a8565b80548390829061119190600190611ed1565b815481106111a1576111a1611f54565b60009182526020909120015467ffffffffffffffff16116111cd576111c58461100b565b9150506106a8565b82816000815481106111e1576111e1611f54565b60009182526020909120015467ffffffffffffffff1611156112075760009150506106a8565b806112128585611a2f565b8154811061122257611222611f54565b600091825260209091200154600160401b90046001600160c01b0316949350505050565b6000546001600160a01b0316336001600160a01b0316148061127b57506003546001600160a01b0316336001600160a01b0316145b61128457600080fd5b6001600160a01b03811661129757600080fd5b600280546001600160a01b0319166001600160a01b0392909216919091179055565b6001600160a01b03831661131b5760405162461bcd60e51b8152602060048201526024808201527f42455032303a20417070726f76652066726f6d20746865207a65726f206164646044820152637265737360e01b6064820152608401610690565b6001600160a01b03821661137c5760405162461bcd60e51b815260206004820152602260248201527f42455032303a20417070726f766520746f20746865207a65726f206164647265604482015261737360f01b6064820152608401610690565b6001600160a01b0383811660008181526006602090815260408083209487168084529482529182902085905590518481527f8c5be1e5ebec7d5bd14f71427d1e84f3dd0314c0f7b2291e5b200ac8c7c3b925910160405180910390a3505050565b6001600160a01b038083166000908152600d602081815260408084208054600584529190942054929091528484166001600160a01b03198216179092559116906114288284836117b5565b826001600160a01b0316826001600160a01b0316856001600160a01b03167f3134e8a2e6d97e929a7e54011ea5485d7d196dd5f0ba4d4ef95803e8e3fc257f60405160405180910390a450505050565b6001600160a01b0383166114dc5760405162461bcd60e51b815260206004820152602560248201527f42455032303a205472616e736665722066726f6d20746865207a65726f206164604482015264647265737360d81b6064820152608401610690565b6001600160a01b03821661153e5760405162461bcd60e51b815260206004820152602360248201527f42455032303a205472616e7366657220746f20746865207a65726f206164647260448201526265737360e81b6064820152608401610690565b6001600160a01b038316600090815260056020526040902054818110156115b65760405162461bcd60e51b815260206004820152602660248201527f42455032303a205472616e7366657220616d6f756e7420657863656564732062604482015265616c616e636560d01b6064820152608401610690565b6001600160a01b038085166000908152600560205260408082208585039055918516815290812080548492906115ed908490611e97565b92505081905550826001600160a01b0316846001600160a01b03167fddf252ad1be2c89b69c2b068fc378daa952ba7f163c4a11628f55a4df523b3ef8460405161163991815260200190565b60405180910390a350505050565b6001600160a01b03821661169d5760405162461bcd60e51b815260206004820152601f60248201527f42455032303a204d696e7420746f20746865207a65726f2061646472657373006044820152606401610690565b80600760008282546116af9190611e97565b90915550506001600160a01b038216600090815260056020526040812080548392906116dc908490611e97565b90915550506040518181526001600160a01b0383169033907f9d228d69b5fdb8d273a2336f8fb8612d039631024ea9bf09c424a9503aa078f09060200160405180910390a36001600160a01b0382166000336001600160a01b03167f769254a71d2f67d8ac6cb44f2803c0d05cfbcf9effadb6a984f10ff9de3df6c38460405161176891815260200190565b60405180910390a46040518181526001600160a01b038316906000907fddf252ad1be2c89b69c2b068fc378daa952ba7f163c4a11628f55a4df523b3ef9060200160405180910390a35050565b816001600160a01b0316836001600160a01b031614806117d3575080155b156117dd57505050565b6001600160a01b038316156118155760006117f78461100b565b905060006118058383611ed1565b9050611812858383611b28565b50505b6001600160a01b0382161561184d57600061182f8361100b565b9050600061183d8383611e97565b905061184a848383611b28565b50505b505050565b6001600160a01b0382166118b25760405162461bcd60e51b815260206004820152602160248201527f42455032303a204275726e2066726f6d20746865207a65726f206164647265736044820152607360f81b6064820152608401610690565b6001600160a01b038216600090815260056020526040902054818110156119265760405162461bcd60e51b815260206004820152602260248201527f42455032303a204275726e20616d6f756e7420657863656564732062616c616e604482015261636560f01b6064820152608401610690565b6001600160a01b0383166000908152600560205260408120838303905560078054849290611955908490611ed1565b90915550506040518281526001600160a01b0384169033907fe8a89cc6e5096f9d9f43de82c077c1f4cfe707c0e0c2032176c68813b9ae6a5c9060200160405180910390a360006001600160a01b038416336001600160a01b03167f769254a71d2f67d8ac6cb44f2803c0d05cfbcf9effadb6a984f10ff9de3df6c3856040516119e191815260200190565b60405180910390a46040518281526000906001600160a01b038516907fddf252ad1be2c89b69c2b068fc378daa952ba7f163c4a11628f55a4df523b3ef9060200160405180910390a3505050565b6001600160a01b0382166000908152600e60205260408120805482908190611a5990600190611ed1565b90505b81811115611b1f5760006002611a728484611ed1565b611a7c9190611eaf565b611a869083611ed1565b90506000848281548110611a9c57611a9c611f54565b60009182526020918290206040805180820190915291015467ffffffffffffffff8116808352600160401b9091046001600160c01b0316928201929092529150871415611aef575093506106a892505050565b805167ffffffffffffffff16871115611b0a57819350611b18565b611b15600183611ed1565b92505b5050611a5c565b50949350505050565b6001600160a01b0383166000908152600e60205260409020805415801590611b855750805443908290611b5d90600190611ed1565b81548110611b6d57611b6d611f54565b60009182526020909120015467ffffffffffffffff16145b15611be257805482908290611b9c90600190611ed1565b81548110611bac57611bac611f54565b9060005260206000200160000160086101000a8154816001600160c01b0302191690836001600160c01b03160217905550611c35565b6040805180820190915267ffffffffffffffff43811682526001600160c01b038085166020808501918252855460018101875560008781529190912094519151909216600160401b029216919091179101555b60408051848152602081018490526001600160a01b038616917f53ed7954de66613e30dd29b46ab783aa594e6309d021d8854c76bb3325d03aa3910160405180910390a250505050565b80356001600160a01b0381168114611c9657600080fd5b919050565b600060208284031215611cad57600080fd5b611cb682611c7f565b9392505050565b60008060408385031215611cd057600080fd5b611cd983611c7f565b9150611ce760208401611c7f565b90509250929050565b600080600060608486031215611d0557600080fd5b611d0e84611c7f565b9250611d1c60208501611c7f565b9150604084013590509250925092565b60008060408385031215611d3f57600080fd5b611d4883611c7f565b946020939093013593505050565b60008060008060008060c08789031215611d6f57600080fd5b611d7887611c7f565b95506020870135945060408701359350606087013560ff81168114611d9c57600080fd5b9598949750929560808101359460a0909101359350915050565b602080825282518282018190526000919060409081850190868401855b82811015611e0b578151805167ffffffffffffffff1685528601516001600160c01b0316868501529284019290850190600101611dd3565b5091979650505050505050565b600060208083528351808285015260005b81811015611e4557858101830151858201604001528201611e29565b81811115611e57576000604083870101525b50601f01601f1916929092016040019392505050565b60208082526010908201526f14185d5cd8589b194e881c185d5cd95960821b604082015260600190565b60008219821115611eaa57611eaa611f3e565b500190565b600082611ecc57634e487b7160e01b600052601260045260246000fd5b500490565b600082821015611ee357611ee3611f3e565b500390565b600181811c90821680611efc57607f821691505b60208210811415611f1d57634e487b7160e01b600052602260045260246000fd5b50919050565b6000600019821415611f3757611f37611f3e565b5060010190565b634e487b7160e01b600052601160045260246000fd5b634e487b7160e01b600052603260045260246000fdfea26469706673582212205213c0e1e9ec054015c0824c7ae493a84a1252b99703cc4ccb157b5d5d19571a64736f6c63430008070033",
    "sourcePath": "c:/Users/suwan/OneDrive/Desktop/School Stuff/CODE Uni/BSC/nbc-test-hardhat/contracts/token/NBCoin.sol",
    "compiler": {
        "name": "solc",
        "version": "0.8.7+commit.e28d00a7"
    },
    "functionHashes": {
        "DELEGATION_TYPEHASH()": "e7a324dc",
        "DOMAIN_TYPEHASH()": "20606b70",
        "admin()": "f851a440",
        "allowance(address,address)": "dd62ed3e",
        "approve(address,uint256)": "095ea7b3",
        "balanceOf(address)": "70a08231",
        "burn(address,uint256)": "9dc29fac",
        "burner()": "27810b6e",
        "ceo()": "908921fc",
        "decimals()": "313ce567",
        "decreaseAllowance(address,uint256)": "a457c2d7",
        "delegate(address)": "5c19a95c",
        "delegateWithSig(address,uint256,uint256,uint8,bytes32,bytes32)": "15d2c225",
        "getVotingPower(address)": "bb4d4436",
        "getVotingPowerAt(address,uint256)": "eaeded5f",
        "getVotingPowerHistory(address)": "ce9517cf",
        "getVotingPowerHistoryLength(address)": "84b34a31",
        "increaseAllowance(address,uint256)": "39509351",
        "manager()": "481c6a75",
        "mint(address,uint256)": "40c10f19",
        "minter()": "07546172",
        "name()": "06fdde03",
        "newAdmin(address)": "a6ba31c1",
        "newBurner(address)": "f840f72b",
        "newCEO(address)": "a9917dbe",
        "newManager(address)": "906e9400",
        "newMinter(address)": "57341912",
        "nonces(address)": "7ecebe00",
        "pause()": "8456cb59",
        "paused()": "5c975abb",
        "symbol()": "95d89b41",
        "totalSupply()": "18160ddd",
        "transfer(address,uint256)": "a9059cbb",
        "transferFrom(address,address,uint256)": "23b872dd",
        "unpause()": "3f4ba83a",
        "votingDelegates(address)": "1e0fa234",
        "votingPowerHistory(address,uint256)": "7fd491b0"
    },
    "gasEstimates": {
        "creation": {
            "codeDepositCost": "1619200",
            "executionCost": "infinite",
            "totalCost": "infinite"
        },
        "external": {
            "DELEGATION_TYPEHASH()": "261",
            "DOMAIN_TYPEHASH()": "285",
            "admin()": "2469",
            "allowance(address,address)": "infinite",
            "approve(address,uint256)": "26834",
            "balanceOf(address)": "2670",
            "burn(address,uint256)": "infinite",
            "burner()": "2471",
            "ceo()": "2404",
            "decimals()": "2335",
            "decreaseAllowance(address,uint256)": "29170",
            "delegate(address)": "infinite",
            "delegateWithSig(address,uint256,uint256,uint8,bytes32,bytes32)": "infinite",
            "getVotingPower(address)": "9218",
            "getVotingPowerAt(address,uint256)": "infinite",
            "getVotingPowerHistory(address)": "infinite",
            "getVotingPowerHistoryLength(address)": "2649",
            "increaseAllowance(address,uint256)": "29149",
            "manager()": "2382",
            "mint(address,uint256)": "infinite",
            "minter()": "2406",
            "name()": "infinite",
            "newAdmin(address)": "26809",
            "newBurner(address)": "29037",
            "newCEO(address)": "26853",
            "newManager(address)": "28972",
            "newMinter(address)": "28994",
            "nonces(address)": "2565",
            "pause()": "29863",
            "paused()": "2432",
            "symbol()": "infinite",
            "totalSupply()": "2327",
            "transfer(address,uint256)": "53373",
            "transferFrom(address,address,uint256)": "infinite",
            "unpause()": "29834",
            "votingDelegates(address)": "2626",
            "votingPowerHistory(address,uint256)": "4905"
        },
        "internal": {
            "_binaryLookup(address,uint256)": "infinite",
            "_delegate(address,address)": "infinite",
            "_moveVotingPower(address,address,uint256)": "infinite",
            "_updateVotingPower(address,uint256,uint256)": "infinite"
        }
    }
}