{
    "contractName": "NBCoin",
    "abi": [
        {
            "inputs": [],
            "stateMutability": "nonpayable",
            "type": "constructor"
        },
        {
            "anonymous": false,
            "inputs": [
                {
                    "indexed": true,
                    "internalType": "address",
                    "name": "owner",
                    "type": "address"
                },
                {
                    "indexed": true,
                    "internalType": "address",
                    "name": "spender",
                    "type": "address"
                },
                {
                    "indexed": false,
                    "internalType": "uint256",
                    "name": "value",
                    "type": "uint256"
                }
            ],
            "name": "Approval",
            "type": "event"
        },
        {
            "anonymous": false,
            "inputs": [
                {
                    "indexed": true,
                    "internalType": "address",
                    "name": "_owner",
                    "type": "address"
                },
                {
                    "indexed": true,
                    "internalType": "address",
                    "name": "_spender",
                    "type": "address"
                },
                {
                    "indexed": false,
                    "internalType": "uint256",
                    "name": "_oldValue",
                    "type": "uint256"
                },
                {
                    "indexed": false,
                    "internalType": "uint256",
                    "name": "_value",
                    "type": "uint256"
                }
            ],
            "name": "Approved",
            "type": "event"
        },
        {
            "anonymous": false,
            "inputs": [
                {
                    "indexed": true,
                    "internalType": "address",
                    "name": "by",
                    "type": "address"
                },
                {
                    "indexed": true,
                    "internalType": "address",
                    "name": "from",
                    "type": "address"
                },
                {
                    "indexed": false,
                    "internalType": "uint256",
                    "name": "value",
                    "type": "uint256"
                }
            ],
            "name": "Burnt",
            "type": "event"
        },
        {
            "anonymous": false,
            "inputs": [
                {
                    "indexed": true,
                    "internalType": "address",
                    "name": "_of",
                    "type": "address"
                },
                {
                    "indexed": true,
                    "internalType": "address",
                    "name": "_from",
                    "type": "address"
                },
                {
                    "indexed": true,
                    "internalType": "address",
                    "name": "_to",
                    "type": "address"
                }
            ],
            "name": "DelegateChanged",
            "type": "event"
        },
        {
            "anonymous": false,
            "inputs": [
                {
                    "indexed": true,
                    "internalType": "address",
                    "name": "from",
                    "type": "address"
                },
                {
                    "indexed": true,
                    "internalType": "address",
                    "name": "to",
                    "type": "address"
                },
                {
                    "indexed": false,
                    "internalType": "uint256",
                    "name": "value",
                    "type": "uint256"
                }
            ],
            "name": "Minted",
            "type": "event"
        },
        {
            "anonymous": false,
            "inputs": [
                {
                    "indexed": true,
                    "internalType": "address",
                    "name": "from",
                    "type": "address"
                },
                {
                    "indexed": true,
                    "internalType": "address",
                    "name": "to",
                    "type": "address"
                },
                {
                    "indexed": false,
                    "internalType": "uint256",
                    "name": "value",
                    "type": "uint256"
                }
            ],
            "name": "Transfer",
            "type": "event"
        },
        {
            "anonymous": false,
            "inputs": [
                {
                    "indexed": true,
                    "internalType": "address",
                    "name": "_by",
                    "type": "address"
                },
                {
                    "indexed": true,
                    "internalType": "address",
                    "name": "_from",
                    "type": "address"
                },
                {
                    "indexed": true,
                    "internalType": "address",
                    "name": "_to",
                    "type": "address"
                },
                {
                    "indexed": false,
                    "internalType": "uint256",
                    "name": "_value",
                    "type": "uint256"
                }
            ],
            "name": "Transferred",
            "type": "event"
        },
        {
            "anonymous": false,
            "inputs": [
                {
                    "indexed": true,
                    "internalType": "address",
                    "name": "_of",
                    "type": "address"
                },
                {
                    "indexed": false,
                    "internalType": "uint256",
                    "name": "_fromVal",
                    "type": "uint256"
                },
                {
                    "indexed": false,
                    "internalType": "uint256",
                    "name": "_toVal",
                    "type": "uint256"
                }
            ],
            "name": "VotingPowerChanged",
            "type": "event"
        },
        {
            "inputs": [],
            "name": "DELEGATION_TYPEHASH",
            "outputs": [
                {
                    "internalType": "bytes32",
                    "name": "",
                    "type": "bytes32"
                }
            ],
            "stateMutability": "view",
            "type": "function"
        },
        {
            "inputs": [],
            "name": "DOMAIN_TYPEHASH",
            "outputs": [
                {
                    "internalType": "bytes32",
                    "name": "",
                    "type": "bytes32"
                }
            ],
            "stateMutability": "view",
            "type": "function"
        },
        {
            "inputs": [],
            "name": "admin",
            "outputs": [
                {
                    "internalType": "address",
                    "name": "",
                    "type": "address"
                }
            ],
            "stateMutability": "view",
            "type": "function"
        },
        {
            "inputs": [
                {
                    "internalType": "address",
                    "name": "_owner",
                    "type": "address"
                },
                {
                    "internalType": "address",
                    "name": "spender",
                    "type": "address"
                }
            ],
            "name": "allowance",
            "outputs": [
                {
                    "internalType": "uint256",
                    "name": "",
                    "type": "uint256"
                }
            ],
            "stateMutability": "view",
            "type": "function"
        },
        {
            "inputs": [
                {
                    "internalType": "address",
                    "name": "spender",
                    "type": "address"
                },
                {
                    "internalType": "uint256",
                    "name": "amount",
                    "type": "uint256"
                }
            ],
            "name": "approve",
            "outputs": [
                {
                    "internalType": "bool",
                    "name": "",
                    "type": "bool"
                }
            ],
            "stateMutability": "nonpayable",
            "type": "function"
        },
        {
            "inputs": [
                {
                    "internalType": "address",
                    "name": "account",
                    "type": "address"
                }
            ],
            "name": "balanceOf",
            "outputs": [
                {
                    "internalType": "uint256",
                    "name": "",
                    "type": "uint256"
                }
            ],
            "stateMutability": "view",
            "type": "function"
        },
        {
            "inputs": [
                {
                    "internalType": "address",
                    "name": "_from",
                    "type": "address"
                },
                {
                    "internalType": "uint256",
                    "name": "_amount",
                    "type": "uint256"
                }
            ],
            "name": "burn",
            "outputs": [
                {
                    "internalType": "bool",
                    "name": "",
                    "type": "bool"
                }
            ],
            "stateMutability": "nonpayable",
            "type": "function"
        },
        {
            "inputs": [],
            "name": "burner",
            "outputs": [
                {
                    "internalType": "address",
                    "name": "",
                    "type": "address"
                }
            ],
            "stateMutability": "view",
            "type": "function"
        },
        {
            "inputs": [],
            "name": "ceo",
            "outputs": [
                {
                    "internalType": "address",
                    "name": "",
                    "type": "address"
                }
            ],
            "stateMutability": "view",
            "type": "function"
        },
        {
            "inputs": [],
            "name": "decimals",
            "outputs": [
                {
                    "internalType": "uint8",
                    "name": "",
                    "type": "uint8"
                }
            ],
            "stateMutability": "view",
            "type": "function"
        },
        {
            "inputs": [
                {
                    "internalType": "address",
                    "name": "spender",
                    "type": "address"
                },
                {
                    "internalType": "uint256",
                    "name": "subtractedValue",
                    "type": "uint256"
                }
            ],
            "name": "decreaseAllowance",
            "outputs": [
                {
                    "internalType": "bool",
                    "name": "",
                    "type": "bool"
                }
            ],
            "stateMutability": "nonpayable",
            "type": "function"
        },
        {
            "inputs": [
                {
                    "internalType": "address",
                    "name": "_to",
                    "type": "address"
                }
            ],
            "name": "delegate",
            "outputs": [],
            "stateMutability": "nonpayable",
            "type": "function"
        },
        {
            "inputs": [
                {
                    "internalType": "address",
                    "name": "_to",
                    "type": "address"
                },
                {
                    "internalType": "uint256",
                    "name": "_nonce",
                    "type": "uint256"
                },
                {
                    "internalType": "uint256",
                    "name": "_exp",
                    "type": "uint256"
                },
                {
                    "internalType": "uint8",
                    "name": "v",
                    "type": "uint8"
                },
                {
                    "internalType": "bytes32",
                    "name": "r",
                    "type": "bytes32"
                },
                {
                    "internalType": "bytes32",
                    "name": "s",
                    "type": "bytes32"
                }
            ],
            "name": "delegateWithSig",
            "outputs": [],
            "stateMutability": "nonpayable",
            "type": "function"
        },
        {
            "inputs": [
                {
                    "internalType": "address",
                    "name": "_of",
                    "type": "address"
                }
            ],
            "name": "getVotingPower",
            "outputs": [
                {
                    "internalType": "uint256",
                    "name": "",
                    "type": "uint256"
                }
            ],
            "stateMutability": "view",
            "type": "function"
        },
        {
            "inputs": [
                {
                    "internalType": "address",
                    "name": "_of",
                    "type": "address"
                },
                {
                    "internalType": "uint256",
                    "name": "_blockNum",
                    "type": "uint256"
                }
            ],
            "name": "getVotingPowerAt",
            "outputs": [
                {
                    "internalType": "uint256",
                    "name": "",
                    "type": "uint256"
                }
            ],
            "stateMutability": "view",
            "type": "function"
        },
        {
            "inputs": [
                {
                    "internalType": "address",
                    "name": "_of",
                    "type": "address"
                }
            ],
            "name": "getVotingPowerHistory",
            "outputs": [
                {
                    "components": [
                        {
                            "internalType": "uint64",
                            "name": "blockNumber",
                            "type": "uint64"
                        },
                        {
                            "internalType": "uint192",
                            "name": "votingPower",
                            "type": "uint192"
                        }
                    ],
                    "internalType": "struct NBCoin.VotingPowerRecord[]",
                    "name": "",
                    "type": "tuple[]"
                }
            ],
            "stateMutability": "view",
            "type": "function"
        },
        {
            "inputs": [
                {
                    "internalType": "address",
                    "name": "_of",
                    "type": "address"
                }
            ],
            "name": "getVotingPowerHistoryLength",
            "outputs": [
                {
                    "internalType": "uint256",
                    "name": "",
                    "type": "uint256"
                }
            ],
            "stateMutability": "view",
            "type": "function"
        },
        {
            "inputs": [
                {
                    "internalType": "address",
                    "name": "spender",
                    "type": "address"
                },
                {
                    "internalType": "uint256",
                    "name": "addedValue",
                    "type": "uint256"
                }
            ],
            "name": "increaseAllowance",
            "outputs": [
                {
                    "internalType": "bool",
                    "name": "",
                    "type": "bool"
                }
            ],
            "stateMutability": "nonpayable",
            "type": "function"
        },
        {
            "inputs": [],
            "name": "manager",
            "outputs": [
                {
                    "internalType": "address",
                    "name": "",
                    "type": "address"
                }
            ],
            "stateMutability": "view",
            "type": "function"
        },
        {
            "inputs": [
                {
                    "internalType": "address",
                    "name": "_to",
                    "type": "address"
                },
                {
                    "internalType": "uint256",
                    "name": "_amount",
                    "type": "uint256"
                }
            ],
            "name": "mint",
            "outputs": [
                {
                    "internalType": "bool",
                    "name": "",
                    "type": "bool"
                }
            ],
            "stateMutability": "nonpayable",
            "type": "function"
        },
        {
            "inputs": [],
            "name": "minter",
            "outputs": [
                {
                    "internalType": "address",
                    "name": "",
                    "type": "address"
                }
            ],
            "stateMutability": "view",
            "type": "function"
        },
        {
            "inputs": [],
            "name": "name",
            "outputs": [
                {
                    "internalType": "string",
                    "name": "",
                    "type": "string"
                }
            ],
            "stateMutability": "view",
            "type": "function"
        },
        {
            "inputs": [
                {
                    "internalType": "address",
                    "name": "_newAdmin",
                    "type": "address"
                }
            ],
            "name": "newAdmin",
            "outputs": [],
            "stateMutability": "nonpayable",
            "type": "function"
        },
        {
            "inputs": [
                {
                    "internalType": "address",
                    "name": "_newBurner",
                    "type": "address"
                }
            ],
            "name": "newBurner",
            "outputs": [],
            "stateMutability": "nonpayable",
            "type": "function"
        },
        {
            "inputs": [
                {
                    "internalType": "address",
                    "name": "_newCEO",
                    "type": "address"
                }
            ],
            "name": "newCEO",
            "outputs": [],
            "stateMutability": "nonpayable",
            "type": "function"
        },
        {
            "inputs": [
                {
                    "internalType": "address",
                    "name": "_newManager",
                    "type": "address"
                }
            ],
            "name": "newManager",
            "outputs": [],
            "stateMutability": "nonpayable",
            "type": "function"
        },
        {
            "inputs": [
                {
                    "internalType": "address",
                    "name": "_newMinter",
                    "type": "address"
                }
            ],
            "name": "newMinter",
            "outputs": [],
            "stateMutability": "nonpayable",
            "type": "function"
        },
        {
            "inputs": [
                {
                    "internalType": "address",
                    "name": "",
                    "type": "address"
                }
            ],
            "name": "nonces",
            "outputs": [
                {
                    "internalType": "uint256",
                    "name": "",
                    "type": "uint256"
                }
            ],
            "stateMutability": "view",
            "type": "function"
        },
        {
            "inputs": [],
            "name": "symbol",
            "outputs": [
                {
                    "internalType": "string",
                    "name": "",
                    "type": "string"
                }
            ],
            "stateMutability": "view",
            "type": "function"
        },
        {
            "inputs": [],
            "name": "totalSupply",
            "outputs": [
                {
                    "internalType": "uint256",
                    "name": "",
                    "type": "uint256"
                }
            ],
            "stateMutability": "view",
            "type": "function"
        },
        {
            "inputs": [
                {
                    "internalType": "address",
                    "name": "recipient",
                    "type": "address"
                },
                {
                    "internalType": "uint256",
                    "name": "amount",
                    "type": "uint256"
                }
            ],
            "name": "transfer",
            "outputs": [
                {
                    "internalType": "bool",
                    "name": "",
                    "type": "bool"
                }
            ],
            "stateMutability": "nonpayable",
            "type": "function"
        },
        {
            "inputs": [
                {
                    "internalType": "address",
                    "name": "sender",
                    "type": "address"
                },
                {
                    "internalType": "address",
                    "name": "recipient",
                    "type": "address"
                },
                {
                    "internalType": "uint256",
                    "name": "amount",
                    "type": "uint256"
                }
            ],
            "name": "transferFrom",
            "outputs": [
                {
                    "internalType": "bool",
                    "name": "",
                    "type": "bool"
                }
            ],
            "stateMutability": "nonpayable",
            "type": "function"
        },
        {
            "inputs": [
                {
                    "internalType": "address",
                    "name": "",
                    "type": "address"
                }
            ],
            "name": "votingDelegates",
            "outputs": [
                {
                    "internalType": "address",
                    "name": "",
                    "type": "address"
                }
            ],
            "stateMutability": "view",
            "type": "function"
        },
        {
            "inputs": [
                {
                    "internalType": "address",
                    "name": "",
                    "type": "address"
                },
                {
                    "internalType": "uint256",
                    "name": "",
                    "type": "uint256"
                }
            ],
            "name": "votingPowerHistory",
            "outputs": [
                {
                    "internalType": "uint64",
                    "name": "blockNumber",
                    "type": "uint64"
                },
                {
                    "internalType": "uint192",
                    "name": "votingPower",
                    "type": "uint192"
                }
            ],
            "stateMutability": "view",
            "type": "function"
        }
    ],
    "bytecode": "60806040526a52b7d2dcc80cd2e4000000600b556a6b88921f0410abc2000000600c553480156200002f57600080fd5b506040518060400160405280600b81526020016a4e42436f696e204265746160a81b81525060405180604001604052806004815260200163272121a160e11b815250620000816200019860201b60201c565b600080546001600160a01b0319166001600160a01b0392909216919091179055620000a93390565b600180546001600160a01b0319166001600160a01b0392909216919091179055620000d13390565b600280546001600160a01b0319166001600160a01b0392909216919091179055620000f93390565b600380546001600160a01b0319166001600160a01b0392909216919091179055620001213390565b600480546001600160a01b0319166001600160a01b039290921691909117905581516200015690600890602085019062000672565b5080516200016c90600990602084019062000672565b5050600a805460ff191660121790555062000191620001883390565b600b546200019c565b50620007b6565b3390565b6001546000906001600160a01b0316336001600160a01b031614620001c057600080fd5b600c5482620001ce60075490565b620001da919062000718565b11156200022e5760405162461bcd60e51b815260206004820152601f60248201527f42455032303a2043617020726561636865642e2043616e6e6f74206d696e740060448201526064015b60405180910390fd5b6200023a83836200026a565b6001600160a01b038084166000908152600d602052604081205462000261921684620003df565b50600192915050565b6001600160a01b038216620002c25760405162461bcd60e51b815260206004820152601f60248201527f42455032303a204d696e7420746f20746865207a65726f206164647265737300604482015260640162000225565b8060076000828254620002d6919062000718565b90915550506001600160a01b038216600090815260056020526040812080548392906200030590849062000718565b90915550506040518181526001600160a01b0383169033907f9d228d69b5fdb8d273a2336f8fb8612d039631024ea9bf09c424a9503aa078f09060200160405180910390a36001600160a01b0382166000336001600160a01b03167f769254a71d2f67d8ac6cb44f2803c0d05cfbcf9effadb6a984f10ff9de3df6c3846040516200039291815260200190565b60405180910390a46040518181526001600160a01b038316906000907fddf252ad1be2c89b69c2b068fc378daa952ba7f163c4a11628f55a4df523b3ef9060200160405180910390a35050565b816001600160a01b0316836001600160a01b03161480620003fe575080155b156200040957505050565b6001600160a01b038316156200044857600062000426846200048c565b9050600062000436838362000733565b9050620004458583836200050b565b50505b6001600160a01b038216156200048757600062000465836200048c565b9050600062000475838362000718565b9050620004848483836200050b565b50505b505050565b6001600160a01b0381166000908152600e60205260408120805415620004f85780548190620004be9060019062000733565b81548110620004d157620004d1620007a0565b6000918252602090912001546801000000000000000090046001600160c01b0316620004fb565b60005b6001600160c01b03169392505050565b6001600160a01b0383166000908152600e602052604090208054158015906200056d5750805443908290620005439060019062000733565b81548110620005565762000556620007a0565b6000918252602090912001546001600160401b0316145b15620005d157805482908290620005879060019062000733565b815481106200059a576200059a620007a0565b9060005260206000200160000160086101000a8154816001600160c01b0302191690836001600160c01b0316021790555062000628565b604080518082019091526001600160401b0343811682526001600160c01b03808516602080850191825285546001810187556000878152919091209451915190921668010000000000000000029216919091179101555b60408051848152602081018490526001600160a01b038616917f53ed7954de66613e30dd29b46ab783aa594e6309d021d8854c76bb3325d03aa3910160405180910390a250505050565b82805462000680906200074d565b90600052602060002090601f016020900481019282620006a45760008555620006ef565b82601f10620006bf57805160ff1916838001178555620006ef565b82800160010185558215620006ef579182015b82811115620006ef578251825591602001919060010190620006d2565b50620006fd92915062000701565b5090565b5b80821115620006fd576000815560010162000702565b600082198211156200072e576200072e6200078a565b500190565b6000828210156200074857620007486200078a565b500390565b600181811c908216806200076257607f821691505b602082108114156200078457634e487b7160e01b600052602260045260246000fd5b50919050565b634e487b7160e01b600052601160045260246000fd5b634e487b7160e01b600052603260045260246000fd5b611ca180620007c66000396000f3fe608060405234801561001057600080fd5b50600436106102065760003560e01c80637fd491b01161011a578063a9059cbb116100ad578063dd62ed3e1161007c578063dd62ed3e146104f5578063e7a324dc1461052e578063eaeded5f14610555578063f840f72b14610568578063f851a4401461057b57600080fd5b8063a9059cbb1461049c578063a9917dbe146104af578063bb4d4436146104c2578063ce9517cf146104d557600080fd5b806395d89b41116100e957806395d89b411461045b5780639dc29fac14610463578063a457c2d714610476578063a6ba31c11461048957600080fd5b80637fd491b0146103d157806384b34a311461040c578063906e940014610435578063908921fc1461044857600080fd5b806327810b6e1161019d578063481c6a751161016c578063481c6a751461034f57806357341912146103625780635c19a95c1461037557806370a08231146103885780637ecebe00146103b157600080fd5b806327810b6e14610301578063313ce56714610314578063395093511461032957806340c10f191461033c57600080fd5b806318160ddd116101d957806318160ddd1461028c5780631e0fa2341461029e57806320606b70146102c757806323b872dd146102ee57600080fd5b806306fdde031461020b5780630754617214610229578063095ea7b31461025457806315d2c22514610277575b600080fd5b61021361058e565b6040516102209190611b43565b60405180910390f35b60015461023c906001600160a01b031681565b6040516001600160a01b039091168152602001610220565b610267610262366004611a57565b610620565b6040519015158152602001610220565b61028a610285366004611a81565b610637565b005b6007545b604051908152602001610220565b61023c6102ac3660046119c6565b600d602052600090815260409020546001600160a01b031681565b6102907f8cad95687ba82c2ce50e74f7b754645e5117c3a5bec8151c0726d5857980a86681565b6102676102fc366004611a1b565b6108c8565b60025461023c906001600160a01b031681565b600a5460405160ff9091168152602001610220565b610267610337366004611a57565b610972565b61026761034a366004611a57565b6109ae565b60045461023c906001600160a01b031681565b61028a6103703660046119c6565b610a65565b61028a6103833660046119c6565b610ad8565b6102906103963660046119c6565b6001600160a01b031660009081526005602052604090205490565b6102906103bf3660046119c6565b600f6020526000908152604090205481565b6103e46103df366004611a57565b610ae5565b6040805167ffffffffffffffff90931683526001600160c01b03909116602083015201610220565b61029061041a3660046119c6565b6001600160a01b03166000908152600e602052604090205490565b61028a6104433660046119c6565b610b2f565b60035461023c906001600160a01b031681565b610213610b84565b610267610471366004611a57565b610b93565b610267610484366004611a57565b610be6565b61028a6104973660046119c6565b610c7f565b6102676104aa366004611a57565b610cd4565b61028a6104bd3660046119c6565b610ce1565b6102906104d03660046119c6565b610d36565b6104e86104e33660046119c6565b610da9565b6040516102209190611ae1565b6102906105033660046119e8565b6001600160a01b03918216600090815260066020908152604080832093909416825291909152205490565b6102907fff41620983935eb4d4a3c7384a066ca8c1d10cef9a5eca9eb97ca735cd14a75581565b610290610563366004611a57565b610e3c565b61028a6105763660046119c6565b610f71565b60005461023c906001600160a01b031681565b60606008805461059d90611be9565b80601f01602080910402602001604051908101604052809291908181526020018280546105c990611be9565b80156106165780601f106105eb57610100808354040283529160200191610616565b820191906000526020600020905b8154815290600101906020018083116105f957829003601f168201915b5050505050905090565b600061062d338484610fe4565b5060015b92915050565b60007f8cad95687ba82c2ce50e74f7b754645e5117c3a5bec8151c0726d5857980a86661066261058e565b8051602091820120604080518084019490945283810191909152466060840152306080808501919091528151808503909101815260a0840182528051908301207fff41620983935eb4d4a3c7384a066ca8c1d10cef9a5eca9eb97ca735cd14a75560c08501526001600160a01b038b1660e085015261010084018a90526101208085018a90528251808603909101815261014085019092528151919092012061190160f01b61016084015261016283018290526101828301819052909250906000906101a20160408051601f198184030181528282528051602091820120600080855291840180845281905260ff8a169284019290925260608301889052608083018790529092509060019060a0016020604051602081039080840390855afa158015610793573d6000803e3d6000fd5b5050604051601f1901519150506001600160a01b0381166107ef5760405162461bcd60e51b8152602060048201526011602482015270696e76616c6964207369676e617475726560781b60448201526064015b60405180910390fd5b6001600160a01b0381166000908152600f602052604090205489146108465760405162461bcd60e51b815260206004820152600d60248201526c696e76616c6964206e6f6e636560981b60448201526064016107e6565b8742106108895760405162461bcd60e51b81526020600482015260116024820152701cda59db985d1d5c9948195e1c1a5c9959607a1b60448201526064016107e6565b6001600160a01b0381166000908152600f602052604081208054916108ad83611c24565b91905055506108bc818b611108565b50505050505050505050565b60006108d58484846111a3565b6001600160a01b03841660009081526006602090815260408083203384529091529020548281101561095a5760405162461bcd60e51b815260206004820152602860248201527f42455032303a205472616e7366657220616d6f756e74206578636565647320616044820152676c6c6f77616e636560c01b60648201526084016107e6565b6109678533858403610fe4565b506001949350505050565b3360008181526006602090815260408083206001600160a01b0387168452909152812054909161062d9185906109a9908690611b98565b610fe4565b6001546000906001600160a01b0316336001600160a01b0316146109d157600080fd5b600c54826109de60075490565b6109e89190611b98565b1115610a365760405162461bcd60e51b815260206004820152601f60248201527f42455032303a2043617020726561636865642e2043616e6e6f74206d696e740060448201526064016107e6565b610a408383611372565b6001600160a01b038084166000908152600d602052604081205461062d9216846114e0565b6000546001600160a01b0316336001600160a01b03161480610a9a57506003546001600160a01b0316336001600160a01b0316145b610aa357600080fd5b6001600160a01b038116610ab657600080fd5b600180546001600160a01b0319166001600160a01b0392909216919091179055565b610ae23382611108565b50565b600e6020528160005260406000208181548110610b0157600080fd5b60009182526020909120015467ffffffffffffffff81169250600160401b90046001600160c01b0316905082565b6000546001600160a01b0316336001600160a01b031614610b4f57600080fd5b6001600160a01b038116610b6257600080fd5b600480546001600160a01b0319166001600160a01b0392909216919091179055565b60606009805461059d90611be9565b6002546000906001600160a01b0316336001600160a01b031614610bb657600080fd5b610bc0838361157d565b6001600160a01b038084166000908152600d602052604081205461062d921690846114e0565b3360009081526006602090815260408083206001600160a01b038616845290915281205482811015610c685760405162461bcd60e51b815260206004820152602560248201527f42455032303a2044656372656173656420616c6c6f77616e63652062656c6f77604482015264207a65726f60d81b60648201526084016107e6565b610c753385858403610fe4565b5060019392505050565b6000546001600160a01b0316336001600160a01b031614610c9f57600080fd5b6001600160a01b038116610cb257600080fd5b600080546001600160a01b0319166001600160a01b0392909216919091179055565b600061062d3384846111a3565b6000546001600160a01b0316336001600160a01b031614610d0157600080fd5b6001600160a01b038116610d1457600080fd5b600380546001600160a01b0319166001600160a01b0392909216919091179055565b6001600160a01b0381166000908152600e60205260408120805415610d965780548190610d6590600190611bd2565b81548110610d7557610d75611c55565b600091825260209091200154600160401b90046001600160c01b0316610d99565b60005b6001600160c01b03169392505050565b6001600160a01b0381166000908152600e60209081526040808320805482518185028101850190935280835260609492939192909184015b82821015610e31576000848152602090819020604080518082019091529084015467ffffffffffffffff81168252600160401b90046001600160c01b031681830152825260019092019101610de1565b505050509050919050565b6000438210610e825760405162461bcd60e51b81526020600482015260126024820152711b9bdd081e595d0819195d195c9b5a5b995960721b60448201526064016107e6565b6001600160a01b0383166000908152600e602052604090208054610eaa576000915050610631565b805483908290610ebc90600190611bd2565b81548110610ecc57610ecc611c55565b60009182526020909120015467ffffffffffffffff1611610ef857610ef084610d36565b915050610631565b8281600081548110610f0c57610f0c611c55565b60009182526020909120015467ffffffffffffffff161115610f32576000915050610631565b80610f3d858561175a565b81548110610f4d57610f4d611c55565b600091825260209091200154600160401b90046001600160c01b0316949350505050565b6000546001600160a01b0316336001600160a01b03161480610fa657506003546001600160a01b0316336001600160a01b0316145b610faf57600080fd5b6001600160a01b038116610fc257600080fd5b600280546001600160a01b0319166001600160a01b0392909216919091179055565b6001600160a01b0383166110465760405162461bcd60e51b8152602060048201526024808201527f42455032303a20417070726f76652066726f6d20746865207a65726f206164646044820152637265737360e01b60648201526084016107e6565b6001600160a01b0382166110a75760405162461bcd60e51b815260206004820152602260248201527f42455032303a20417070726f766520746f20746865207a65726f206164647265604482015261737360f01b60648201526084016107e6565b6001600160a01b0383811660008181526006602090815260408083209487168084529482529182902085905590518481527f8c5be1e5ebec7d5bd14f71427d1e84f3dd0314c0f7b2291e5b200ac8c7c3b925910160405180910390a3505050565b6001600160a01b038083166000908152600d602081815260408084208054600584529190942054929091528484166001600160a01b03198216179092559116906111538284836114e0565b826001600160a01b0316826001600160a01b0316856001600160a01b03167f3134e8a2e6d97e929a7e54011ea5485d7d196dd5f0ba4d4ef95803e8e3fc257f60405160405180910390a450505050565b6001600160a01b0383166112075760405162461bcd60e51b815260206004820152602560248201527f42455032303a205472616e736665722066726f6d20746865207a65726f206164604482015264647265737360d81b60648201526084016107e6565b6001600160a01b0382166112695760405162461bcd60e51b815260206004820152602360248201527f42455032303a205472616e7366657220746f20746865207a65726f206164647260448201526265737360e81b60648201526084016107e6565b6001600160a01b038316600090815260056020526040902054818110156112e15760405162461bcd60e51b815260206004820152602660248201527f42455032303a205472616e7366657220616d6f756e7420657863656564732062604482015265616c616e636560d01b60648201526084016107e6565b6001600160a01b03808516600090815260056020526040808220858503905591851681529081208054849290611318908490611b98565b92505081905550826001600160a01b0316846001600160a01b03167fddf252ad1be2c89b69c2b068fc378daa952ba7f163c4a11628f55a4df523b3ef8460405161136491815260200190565b60405180910390a350505050565b6001600160a01b0382166113c85760405162461bcd60e51b815260206004820152601f60248201527f42455032303a204d696e7420746f20746865207a65726f20616464726573730060448201526064016107e6565b80600760008282546113da9190611b98565b90915550506001600160a01b03821660009081526005602052604081208054839290611407908490611b98565b90915550506040518181526001600160a01b0383169033907f9d228d69b5fdb8d273a2336f8fb8612d039631024ea9bf09c424a9503aa078f09060200160405180910390a36001600160a01b0382166000336001600160a01b03167f769254a71d2f67d8ac6cb44f2803c0d05cfbcf9effadb6a984f10ff9de3df6c38460405161149391815260200190565b60405180910390a46040518181526001600160a01b038316906000907fddf252ad1be2c89b69c2b068fc378daa952ba7f163c4a11628f55a4df523b3ef9060200160405180910390a35050565b816001600160a01b0316836001600160a01b031614806114fe575080155b1561150857505050565b6001600160a01b0383161561154057600061152284610d36565b905060006115308383611bd2565b905061153d858383611853565b50505b6001600160a01b0382161561157857600061155a83610d36565b905060006115688383611b98565b9050611575848383611853565b50505b505050565b6001600160a01b0382166115dd5760405162461bcd60e51b815260206004820152602160248201527f42455032303a204275726e2066726f6d20746865207a65726f206164647265736044820152607360f81b60648201526084016107e6565b6001600160a01b038216600090815260056020526040902054818110156116515760405162461bcd60e51b815260206004820152602260248201527f42455032303a204275726e20616d6f756e7420657863656564732062616c616e604482015261636560f01b60648201526084016107e6565b6001600160a01b0383166000908152600560205260408120838303905560078054849290611680908490611bd2565b90915550506040518281526001600160a01b0384169033907fe8a89cc6e5096f9d9f43de82c077c1f4cfe707c0e0c2032176c68813b9ae6a5c9060200160405180910390a360006001600160a01b038416336001600160a01b03167f769254a71d2f67d8ac6cb44f2803c0d05cfbcf9effadb6a984f10ff9de3df6c38560405161170c91815260200190565b60405180910390a46040518281526000906001600160a01b038516907fddf252ad1be2c89b69c2b068fc378daa952ba7f163c4a11628f55a4df523b3ef9060200160405180910390a3505050565b6001600160a01b0382166000908152600e6020526040812080548290819061178490600190611bd2565b90505b8181111561184a576000600261179d8484611bd2565b6117a79190611bb0565b6117b19083611bd2565b905060008482815481106117c7576117c7611c55565b60009182526020918290206040805180820190915291015467ffffffffffffffff8116808352600160401b9091046001600160c01b031692820192909252915087141561181a5750935061063192505050565b805167ffffffffffffffff1687111561183557819350611843565b611840600183611bd2565b92505b5050611787565b50949350505050565b6001600160a01b0383166000908152600e602052604090208054158015906118b0575080544390829061188890600190611bd2565b8154811061189857611898611c55565b60009182526020909120015467ffffffffffffffff16145b1561190d578054829082906118c790600190611bd2565b815481106118d7576118d7611c55565b9060005260206000200160000160086101000a8154816001600160c01b0302191690836001600160c01b03160217905550611960565b6040805180820190915267ffffffffffffffff43811682526001600160c01b038085166020808501918252855460018101875560008781529190912094519151909216600160401b029216919091179101555b60408051848152602081018490526001600160a01b038616917f53ed7954de66613e30dd29b46ab783aa594e6309d021d8854c76bb3325d03aa3910160405180910390a250505050565b80356001600160a01b03811681146119c157600080fd5b919050565b6000602082840312156119d857600080fd5b6119e1826119aa565b9392505050565b600080604083850312156119fb57600080fd5b611a04836119aa565b9150611a12602084016119aa565b90509250929050565b600080600060608486031215611a3057600080fd5b611a39846119aa565b9250611a47602085016119aa565b9150604084013590509250925092565b60008060408385031215611a6a57600080fd5b611a73836119aa565b946020939093013593505050565b60008060008060008060c08789031215611a9a57600080fd5b611aa3876119aa565b95506020870135945060408701359350606087013560ff81168114611ac757600080fd5b9598949750929560808101359460a0909101359350915050565b602080825282518282018190526000919060409081850190868401855b82811015611b36578151805167ffffffffffffffff1685528601516001600160c01b0316868501529284019290850190600101611afe565b5091979650505050505050565b600060208083528351808285015260005b81811015611b7057858101830151858201604001528201611b54565b81811115611b82576000604083870101525b50601f01601f1916929092016040019392505050565b60008219821115611bab57611bab611c3f565b500190565b600082611bcd57634e487b7160e01b600052601260045260246000fd5b500490565b600082821015611be457611be4611c3f565b500390565b600181811c90821680611bfd57607f821691505b60208210811415611c1e57634e487b7160e01b600052602260045260246000fd5b50919050565b6000600019821415611c3857611c38611c3f565b5060010190565b634e487b7160e01b600052601160045260246000fd5b634e487b7160e01b600052603260045260246000fdfea2646970667358221220754467b408b680c0682406e2c0be7cff2937557ea5222061403f3db4f278b8dc64736f6c63430008070033",
    "sourcePath": "c:/Users/suwan/OneDrive/Desktop/School Stuff/CODE Uni/BSC/nbc-test-hardhat/contracts/token/NBCoin.sol",
    "compiler": {
        "name": "solc",
        "version": "0.8.7+commit.e28d00a7"
    },
    "functionHashes": {
        "DELEGATION_TYPEHASH()": "e7a324dc",
        "DOMAIN_TYPEHASH()": "20606b70",
        "admin()": "f851a440",
        "allowance(address,address)": "dd62ed3e",
        "approve(address,uint256)": "095ea7b3",
        "balanceOf(address)": "70a08231",
        "burn(address,uint256)": "9dc29fac",
        "burner()": "27810b6e",
        "ceo()": "908921fc",
        "decimals()": "313ce567",
        "decreaseAllowance(address,uint256)": "a457c2d7",
        "delegate(address)": "5c19a95c",
        "delegateWithSig(address,uint256,uint256,uint8,bytes32,bytes32)": "15d2c225",
        "getVotingPower(address)": "bb4d4436",
        "getVotingPowerAt(address,uint256)": "eaeded5f",
        "getVotingPowerHistory(address)": "ce9517cf",
        "getVotingPowerHistoryLength(address)": "84b34a31",
        "increaseAllowance(address,uint256)": "39509351",
        "manager()": "481c6a75",
        "mint(address,uint256)": "40c10f19",
        "minter()": "07546172",
        "name()": "06fdde03",
        "newAdmin(address)": "a6ba31c1",
        "newBurner(address)": "f840f72b",
        "newCEO(address)": "a9917dbe",
        "newManager(address)": "906e9400",
        "newMinter(address)": "57341912",
        "nonces(address)": "7ecebe00",
        "symbol()": "95d89b41",
        "totalSupply()": "18160ddd",
        "transfer(address,uint256)": "a9059cbb",
        "transferFrom(address,address,uint256)": "23b872dd",
        "votingDelegates(address)": "1e0fa234",
        "votingPowerHistory(address,uint256)": "7fd491b0"
    },
    "gasEstimates": {
        "creation": {
            "codeDepositCost": "1465800",
            "executionCost": "infinite",
            "totalCost": "infinite"
        },
        "external": {
            "DELEGATION_TYPEHASH()": "261",
            "DOMAIN_TYPEHASH()": "285",
            "admin()": "2469",
            "allowance(address,address)": "infinite",
            "approve(address,uint256)": "24688",
            "balanceOf(address)": "2648",
            "burn(address,uint256)": "infinite",
            "burner()": "2383",
            "ceo()": "2449",
            "decimals()": "2357",
            "decreaseAllowance(address,uint256)": "26977",
            "delegate(address)": "infinite",
            "delegateWithSig(address,uint256,uint256,uint8,bytes32,bytes32)": "infinite",
            "getVotingPower(address)": "9196",
            "getVotingPowerAt(address,uint256)": "infinite",
            "getVotingPowerHistory(address)": "infinite",
            "getVotingPowerHistoryLength(address)": "2605",
            "increaseAllowance(address,uint256)": "27025",
            "manager()": "2382",
            "mint(address,uint256)": "infinite",
            "minter()": "2406",
            "name()": "infinite",
            "newAdmin(address)": "26875",
            "newBurner(address)": "29037",
            "newCEO(address)": "26831",
            "newManager(address)": "26854",
            "newMinter(address)": "28994",
            "nonces(address)": "2652",
            "symbol()": "infinite",
            "totalSupply()": "2327",
            "transfer(address,uint256)": "51205",
            "transferFrom(address,address,uint256)": "infinite",
            "votingDelegates(address)": "2626",
            "votingPowerHistory(address,uint256)": "4883"
        },
        "internal": {
            "_binaryLookup(address,uint256)": "infinite",
            "_delegate(address,address)": "infinite",
            "_moveVotingPower(address,address,uint256)": "infinite",
            "_updateVotingPower(address,uint256,uint256)": "infinite"
        }
    }
}