{
    "contractName": "NBCoinCrowdsale",
    "abi": [
        {
            "inputs": [],
            "stateMutability": "nonpayable",
            "type": "constructor"
        },
        {
            "anonymous": false,
            "inputs": [
                {
                    "indexed": false,
                    "internalType": "address",
                    "name": "account",
                    "type": "address"
                }
            ],
            "name": "Paused",
            "type": "event"
        },
        {
            "anonymous": false,
            "inputs": [
                {
                    "indexed": true,
                    "internalType": "address",
                    "name": "purchaser",
                    "type": "address"
                },
                {
                    "indexed": true,
                    "internalType": "address",
                    "name": "beneficiary",
                    "type": "address"
                },
                {
                    "indexed": false,
                    "internalType": "uint256",
                    "name": "value",
                    "type": "uint256"
                },
                {
                    "indexed": false,
                    "internalType": "uint256",
                    "name": "amount",
                    "type": "uint256"
                }
            ],
            "name": "TokensPurchased",
            "type": "event"
        },
        {
            "anonymous": false,
            "inputs": [
                {
                    "indexed": false,
                    "internalType": "address",
                    "name": "account",
                    "type": "address"
                }
            ],
            "name": "Unpaused",
            "type": "event"
        },
        {
            "stateMutability": "payable",
            "type": "fallback"
        },
        {
            "inputs": [],
            "name": "admin",
            "outputs": [
                {
                    "internalType": "address",
                    "name": "",
                    "type": "address"
                }
            ],
            "stateMutability": "view",
            "type": "function"
        },
        {
            "inputs": [],
            "name": "burner",
            "outputs": [
                {
                    "internalType": "address",
                    "name": "",
                    "type": "address"
                }
            ],
            "stateMutability": "view",
            "type": "function"
        },
        {
            "inputs": [
                {
                    "internalType": "address",
                    "name": "beneficiary",
                    "type": "address"
                }
            ],
            "name": "buyTokens",
            "outputs": [],
            "stateMutability": "payable",
            "type": "function"
        },
        {
            "inputs": [],
            "name": "ceo",
            "outputs": [
                {
                    "internalType": "address",
                    "name": "",
                    "type": "address"
                }
            ],
            "stateMutability": "view",
            "type": "function"
        },
        {
            "inputs": [],
            "name": "getRate",
            "outputs": [
                {
                    "internalType": "uint256",
                    "name": "",
                    "type": "uint256"
                }
            ],
            "stateMutability": "view",
            "type": "function"
        },
        {
            "inputs": [],
            "name": "getToken",
            "outputs": [
                {
                    "internalType": "contract IBEP20",
                    "name": "",
                    "type": "address"
                }
            ],
            "stateMutability": "view",
            "type": "function"
        },
        {
            "inputs": [],
            "name": "getWallet",
            "outputs": [
                {
                    "internalType": "address payable",
                    "name": "",
                    "type": "address"
                }
            ],
            "stateMutability": "view",
            "type": "function"
        },
        {
            "inputs": [],
            "name": "getWeiRaised",
            "outputs": [
                {
                    "internalType": "uint256",
                    "name": "",
                    "type": "uint256"
                }
            ],
            "stateMutability": "view",
            "type": "function"
        },
        {
            "inputs": [],
            "name": "manager",
            "outputs": [
                {
                    "internalType": "address",
                    "name": "",
                    "type": "address"
                }
            ],
            "stateMutability": "view",
            "type": "function"
        },
        {
            "inputs": [],
            "name": "minter",
            "outputs": [
                {
                    "internalType": "address",
                    "name": "",
                    "type": "address"
                }
            ],
            "stateMutability": "view",
            "type": "function"
        },
        {
            "inputs": [
                {
                    "internalType": "address",
                    "name": "_newAdmin",
                    "type": "address"
                }
            ],
            "name": "newAdmin",
            "outputs": [],
            "stateMutability": "nonpayable",
            "type": "function"
        },
        {
            "inputs": [
                {
                    "internalType": "address",
                    "name": "_newBurner",
                    "type": "address"
                }
            ],
            "name": "newBurner",
            "outputs": [],
            "stateMutability": "nonpayable",
            "type": "function"
        },
        {
            "inputs": [
                {
                    "internalType": "address",
                    "name": "_newCEO",
                    "type": "address"
                }
            ],
            "name": "newCEO",
            "outputs": [],
            "stateMutability": "nonpayable",
            "type": "function"
        },
        {
            "inputs": [
                {
                    "internalType": "address",
                    "name": "_newManager",
                    "type": "address"
                }
            ],
            "name": "newManager",
            "outputs": [],
            "stateMutability": "nonpayable",
            "type": "function"
        },
        {
            "inputs": [
                {
                    "internalType": "address",
                    "name": "_newMinter",
                    "type": "address"
                }
            ],
            "name": "newMinter",
            "outputs": [],
            "stateMutability": "nonpayable",
            "type": "function"
        },
        {
            "inputs": [],
            "name": "pause",
            "outputs": [],
            "stateMutability": "nonpayable",
            "type": "function"
        },
        {
            "inputs": [],
            "name": "paused",
            "outputs": [
                {
                    "internalType": "bool",
                    "name": "",
                    "type": "bool"
                }
            ],
            "stateMutability": "view",
            "type": "function"
        },
        {
            "inputs": [],
            "name": "unpause",
            "outputs": [],
            "stateMutability": "nonpayable",
            "type": "function"
        }
    ],
    "bytecode": "608060405234801561001057600080fd5b50600160008190558054336001600160a01b0319918216811790925560028054821683179055600380548216831790556004805490911682179055600580546001600160a81b0319169091179055610fa073213d2806b07fb2bfcd51fcbc7503755784c72f097380801bdc978efe99e01cba129579ab178bfe191b67016345785d8a0000671bc16d674ec800006100ab565b60405180910390fd5b6001600160a01b03841661010f5760405162461bcd60e51b815260206004820152602560248201527f43726f776473616c653a2077616c6c657420697320746865207a65726f206164604482015264647265737360d81b60648201526084016100a2565b6001600160a01b0383166101715760405162461bcd60e51b8152602060048201526024808201527f43726f776473616c653a20746f6b656e20697320746865207a65726f206164646044820152637265737360e01b60648201526084016100a2565b600082116101c15760405162461bcd60e51b815260206004820152601b60248201527f43726f776473616c653a206d696e50757263686173652069732030000000000060448201526064016100a2565b600081116102115760405162461bcd60e51b815260206004820152601b60248201527f43726f776473616c653a206d617850757263686173652069732030000000000060448201526064016100a2565b600894909455600780546001600160a01b039485166001600160a01b0319918216179091556006805493909416921691909117909155600a55600b55610e038061025c6000396000f3fe6080604052600436106101095760003560e01c8063679aefce11610095578063a6ba31c111610064578063a6ba31c1146102ba578063a9917dbe146102da578063ec8ac4d8146102fa578063f840f72b14610308578063f851a4401461032857610109565b8063679aefce146102505780638456cb5914610265578063906e94001461027a578063908921fc1461029a57610109565b80633f4ba83a116100dc5780633f4ba83a146101b257806340582f13146101c7578063481c6a75146101e657806357341912146102065780635c975abb1461022657610109565b80630754617214610119578063132996041461015657806321df0da71461017457806327810b6e14610192575b61011733610348565b610348565b005b34801561012557600080fd5b50600254610139906001600160a01b031681565b6040516001600160a01b0390911681526020015b60405180910390f35b34801561016257600080fd5b506007546001600160a01b0316610139565b34801561018057600080fd5b506006546001600160a01b0316610139565b34801561019e57600080fd5b50600354610139906001600160a01b031681565b3480156101be57600080fd5b5061011761047d565b3480156101d357600080fd5b506009545b60405190815260200161014d565b3480156101f257600080fd5b50600554610139906001600160a01b031681565b34801561021257600080fd5b50610117610221366004610cb6565b61053a565b34801561023257600080fd5b50600554600160a01b900460ff16604051901515815260200161014d565b34801561025c57600080fd5b506008546101d8565b34801561027157600080fd5b506101176105ad565b34801561028657600080fd5b50610117610295366004610cb6565b610655565b3480156102a657600080fd5b50600454610139906001600160a01b031681565b3480156102c657600080fd5b506101176102d5366004610cb6565b6106c8565b3480156102e657600080fd5b506101176102f5366004610cb6565b61071d565b610117610112366004610cb6565b34801561031457600080fd5b50610117610323366004610cb6565b610772565b34801561033457600080fd5b50600154610139906001600160a01b031681565b600260005414156103a05760405162461bcd60e51b815260206004820152601f60248201527f5265656e7472616e637947756172643a207265656e7472616e742063616c6c0060448201526064015b60405180910390fd5b6002600055600554600160a01b900460ff16156103f25760405162461bcd60e51b815260206004820152601060248201526f14185d5cd8589b194e881c185d5cd95960821b6044820152606401610397565b346103fd82826107e5565b600061040882610991565b9050816009546104189190610d50565b60095561042583826109a7565b60408051838152602081018390526001600160a01b0385169133917f6faf93231a456e552dbc9961f58d9713ee4f2e69d15f1975b050ef0911053a7b910160405180910390a36104736109b5565b5050600160005550565b600554600160a01b900460ff166104cd5760405162461bcd60e51b815260206004820152601460248201527314185d5cd8589b194e881b9bdd081c185d5cd95960621b6044820152606401610397565b6001546001600160a01b0316336001600160a01b0316146104ed57600080fd5b6005805460ff60a01b191690557f5db9ee0a495bf2e6ff9c91a7834c1ba4fdd244a5e8aa4e537bd38aeae4b073aa335b6040516001600160a01b03909116815260200160405180910390a1565b6001546001600160a01b0316336001600160a01b0316148061056f57506004546001600160a01b0316336001600160a01b0316145b61057857600080fd5b6001600160a01b03811661058b57600080fd5b600280546001600160a01b0319166001600160a01b0392909216919091179055565b600554600160a01b900460ff16156105fa5760405162461bcd60e51b815260206004820152601060248201526f14185d5cd8589b194e881c185d5cd95960821b6044820152606401610397565b6001546001600160a01b0316336001600160a01b03161461061a57600080fd5b6005805460ff60a01b1916600160a01b1790557f62e78cea01bee320cd4e420270b5ea74000d11b0c9f74754ebdbfc544b05a25861051d3390565b6001546001600160a01b0316336001600160a01b0316148061068a57506004546001600160a01b0316336001600160a01b0316145b61069357600080fd5b6001600160a01b0381166106a657600080fd5b600580546001600160a01b0319166001600160a01b0392909216919091179055565b6001546001600160a01b0316336001600160a01b0316146106e857600080fd5b6001600160a01b0381166106fb57600080fd5b600180546001600160a01b0319166001600160a01b0392909216919091179055565b6001546001600160a01b0316336001600160a01b03161461073d57600080fd5b6001600160a01b03811661075057600080fd5b600480546001600160a01b0319166001600160a01b0392909216919091179055565b6001546001600160a01b0316336001600160a01b031614806107a757506004546001600160a01b0316336001600160a01b0316145b6107b057600080fd5b6001600160a01b0381166107c357600080fd5b600380546001600160a01b0319166001600160a01b0392909216919091179055565b6001600160a01b03821661084e5760405162461bcd60e51b815260206004820152602a60248201527f43726f776473616c653a2062656e656669636961727920697320746865207a65604482015269726f206164647265737360b01b6064820152608401610397565b8061089b5760405162461bcd60e51b815260206004820152601960248201527f43726f776473616c653a20776569416d6f756e742069732030000000000000006044820152606401610397565b6001600160a01b0382166000908152600c6020526040812054906108bf8383610d50565b9050600a548110156109135760405162461bcd60e51b815260206004820152601f60248201527f43726f776473616c653a2050757263686173652062656c6f77206c696d6974006044820152606401610397565b600b548111156109705760405162461bcd60e51b815260206004820152602260248201527f43726f776473616c653a205075726368617365206578636565646564206c696d6044820152611a5d60f21b6064820152608401610397565b6001600160a01b039093166000908152600c60205260409020929092555050565b6000600854826109a19190610d68565b92915050565b6109b182826109f1565b5050565b6007546040516001600160a01b03909116903480156108fc02916000818181858888f193505050501580156109ee573d6000803e3d6000fd5b50565b6006546109b1906001600160a01b031683836040516001600160a01b038316602482015260448101829052610a6590849063a9059cbb60e01b9060640160408051601f198184030181529190526020810180516001600160e01b03166001600160e01b031990931692909217909152610a6a565b505050565b6000610abf826040518060400160405280602081526020017f5361666542455032303a206c6f772d6c6576656c2063616c6c206661696c6564815250856001600160a01b0316610b3c9092919063ffffffff16565b805190915015610a655780806020019051810190610add9190610cdf565b610a655760405162461bcd60e51b815260206004820152602a60248201527f5361666542455032303a204245503230206f7065726174696f6e20646964206e6044820152691bdd081cdd58d8d9595960b21b6064820152608401610397565b6060610b4b8484600085610b55565b90505b9392505050565b606082471015610bb65760405162461bcd60e51b815260206004820152602660248201527f416464726573733a20696e73756666696369656e742062616c616e636520666f6044820152651c8818d85b1b60d21b6064820152608401610397565b843b610c045760405162461bcd60e51b815260206004820152601d60248201527f416464726573733a2063616c6c20746f206e6f6e2d636f6e74726163740000006044820152606401610397565b600080866001600160a01b03168587604051610c209190610d01565b60006040518083038185875af1925050503d8060008114610c5d576040519150601f19603f3d011682016040523d82523d6000602084013e610c62565b606091505b5091509150610c72828286610c7d565b979650505050505050565b60608315610c8c575081610b4e565b825115610c9c5782518084602001fd5b8160405162461bcd60e51b81526004016103979190610d1d565b600060208284031215610cc857600080fd5b81356001600160a01b0381168114610b4e57600080fd5b600060208284031215610cf157600080fd5b81518015158114610b4e57600080fd5b60008251610d13818460208701610d87565b9190910192915050565b6020815260008251806020840152610d3c816040850160208701610d87565b601f01601f19169190910160400192915050565b60008219821115610d6357610d63610db7565b500190565b6000816000190483118215151615610d8257610d82610db7565b500290565b60005b83811015610da2578181015183820152602001610d8a565b83811115610db1576000848401525b50505050565b634e487b7160e01b600052601160045260246000fdfea2646970667358221220b23b57c66b9134dcd0d0de765446915642276f736b545b5eb0cd93ead28e203c64736f6c63430008070033",
    "sourcePath": "c:/Users/suwan/OneDrive/Desktop/School Stuff/CODE Uni/BSC/nbc-test-hardhat/contracts/token/NBCoinCrowdsale.sol",
    "compiler": {
        "name": "solc",
        "version": "0.8.7+commit.e28d00a7"
    },
    "functionHashes": {
        "admin()": "f851a440",
        "burner()": "27810b6e",
        "buyTokens(address)": "ec8ac4d8",
        "ceo()": "908921fc",
        "getRate()": "679aefce",
        "getToken()": "21df0da7",
        "getWallet()": "13299604",
        "getWeiRaised()": "40582f13",
        "manager()": "481c6a75",
        "minter()": "07546172",
        "newAdmin(address)": "a6ba31c1",
        "newBurner(address)": "f840f72b",
        "newCEO(address)": "a9917dbe",
        "newManager(address)": "906e9400",
        "newMinter(address)": "57341912",
        "pause()": "8456cb59",
        "paused()": "5c975abb",
        "unpause()": "3f4ba83a"
    },
    "gasEstimates": {
        "creation": {
            "codeDepositCost": "717400",
            "executionCost": "258983",
            "totalCost": "976383"
        },
        "external": {
            "": "infinite",
            "admin()": "2436",
            "burner()": "2416",
            "buyTokens(address)": "infinite",
            "ceo()": "2415",
            "getRate()": "2315",
            "getToken()": "2388",
            "getWallet()": "2366",
            "getWeiRaised()": "2326",
            "manager()": "2393",
            "minter()": "2350",
            "newAdmin(address)": "26751",
            "newBurner(address)": "28980",
            "newCEO(address)": "26773",
            "newManager(address)": "28959",
            "newMinter(address)": "28981",
            "pause()": "29818",
            "paused()": "2420",
            "unpause()": "29767"
        }
    }
}