{
    "contractName": "Crowdsale",
    "abi": [
        {
            "inputs": [
                {
                    "internalType": "uint256",
                    "name": "rate",
                    "type": "uint256"
                },
                {
                    "internalType": "address payable",
                    "name": "wallet",
                    "type": "address"
                },
                {
                    "internalType": "contract IBEP20",
                    "name": "token",
                    "type": "address"
                },
                {
                    "internalType": "uint256",
                    "name": "minPurchase",
                    "type": "uint256"
                },
                {
                    "internalType": "uint256",
                    "name": "maxPurchase",
                    "type": "uint256"
                }
            ],
            "stateMutability": "nonpayable",
            "type": "constructor"
        },
        {
            "anonymous": false,
            "inputs": [
                {
                    "indexed": false,
                    "internalType": "address",
                    "name": "account",
                    "type": "address"
                }
            ],
            "name": "Paused",
            "type": "event"
        },
        {
            "anonymous": false,
            "inputs": [
                {
                    "indexed": true,
                    "internalType": "address",
                    "name": "purchaser",
                    "type": "address"
                },
                {
                    "indexed": true,
                    "internalType": "address",
                    "name": "beneficiary",
                    "type": "address"
                },
                {
                    "indexed": false,
                    "internalType": "uint256",
                    "name": "value",
                    "type": "uint256"
                },
                {
                    "indexed": false,
                    "internalType": "uint256",
                    "name": "amount",
                    "type": "uint256"
                }
            ],
            "name": "TokensPurchased",
            "type": "event"
        },
        {
            "anonymous": false,
            "inputs": [
                {
                    "indexed": false,
                    "internalType": "address",
                    "name": "account",
                    "type": "address"
                }
            ],
            "name": "Unpaused",
            "type": "event"
        },
        {
            "stateMutability": "payable",
            "type": "fallback"
        },
        {
            "inputs": [],
            "name": "admin",
            "outputs": [
                {
                    "internalType": "address",
                    "name": "",
                    "type": "address"
                }
            ],
            "stateMutability": "view",
            "type": "function"
        },
        {
            "inputs": [],
            "name": "burner",
            "outputs": [
                {
                    "internalType": "address",
                    "name": "",
                    "type": "address"
                }
            ],
            "stateMutability": "view",
            "type": "function"
        },
        {
            "inputs": [
                {
                    "internalType": "address",
                    "name": "beneficiary",
                    "type": "address"
                }
            ],
            "name": "buyTokens",
            "outputs": [],
            "stateMutability": "payable",
            "type": "function"
        },
        {
            "inputs": [],
            "name": "ceo",
            "outputs": [
                {
                    "internalType": "address",
                    "name": "",
                    "type": "address"
                }
            ],
            "stateMutability": "view",
            "type": "function"
        },
        {
            "inputs": [],
            "name": "getRate",
            "outputs": [
                {
                    "internalType": "uint256",
                    "name": "",
                    "type": "uint256"
                }
            ],
            "stateMutability": "view",
            "type": "function"
        },
        {
            "inputs": [],
            "name": "getToken",
            "outputs": [
                {
                    "internalType": "contract IBEP20",
                    "name": "",
                    "type": "address"
                }
            ],
            "stateMutability": "view",
            "type": "function"
        },
        {
            "inputs": [],
            "name": "getWallet",
            "outputs": [
                {
                    "internalType": "address payable",
                    "name": "",
                    "type": "address"
                }
            ],
            "stateMutability": "view",
            "type": "function"
        },
        {
            "inputs": [],
            "name": "getWeiRaised",
            "outputs": [
                {
                    "internalType": "uint256",
                    "name": "",
                    "type": "uint256"
                }
            ],
            "stateMutability": "view",
            "type": "function"
        },
        {
            "inputs": [],
            "name": "manager",
            "outputs": [
                {
                    "internalType": "address",
                    "name": "",
                    "type": "address"
                }
            ],
            "stateMutability": "view",
            "type": "function"
        },
        {
            "inputs": [],
            "name": "minter",
            "outputs": [
                {
                    "internalType": "address",
                    "name": "",
                    "type": "address"
                }
            ],
            "stateMutability": "view",
            "type": "function"
        },
        {
            "inputs": [
                {
                    "internalType": "address",
                    "name": "_newAdmin",
                    "type": "address"
                }
            ],
            "name": "newAdmin",
            "outputs": [],
            "stateMutability": "nonpayable",
            "type": "function"
        },
        {
            "inputs": [
                {
                    "internalType": "address",
                    "name": "_newBurner",
                    "type": "address"
                }
            ],
            "name": "newBurner",
            "outputs": [],
            "stateMutability": "nonpayable",
            "type": "function"
        },
        {
            "inputs": [
                {
                    "internalType": "address",
                    "name": "_newCEO",
                    "type": "address"
                }
            ],
            "name": "newCEO",
            "outputs": [],
            "stateMutability": "nonpayable",
            "type": "function"
        },
        {
            "inputs": [
                {
                    "internalType": "address",
                    "name": "_newManager",
                    "type": "address"
                }
            ],
            "name": "newManager",
            "outputs": [],
            "stateMutability": "nonpayable",
            "type": "function"
        },
        {
            "inputs": [
                {
                    "internalType": "address",
                    "name": "_newMinter",
                    "type": "address"
                }
            ],
            "name": "newMinter",
            "outputs": [],
            "stateMutability": "nonpayable",
            "type": "function"
        },
        {
            "inputs": [],
            "name": "paused",
            "outputs": [
                {
                    "internalType": "bool",
                    "name": "",
                    "type": "bool"
                }
            ],
            "stateMutability": "view",
            "type": "function"
        }
    ],
    "bytecode": "608060405234801561001057600080fd5b5060405162000f5d38038062000f5d83398101604081905261003191610277565b600160008190558054336001600160a01b0319918216811790925560028054821683179055600380548216831790556004805490911682179055600580546001600160a81b0319169091179055846100d05760405162461bcd60e51b815260206004820152601460248201527f43726f776473616c653a2072617465206973203000000000000000000000000060448201526064015b60405180910390fd5b6001600160a01b0384166101345760405162461bcd60e51b815260206004820152602560248201527f43726f776473616c653a2077616c6c657420697320746865207a65726f206164604482015264647265737360d81b60648201526084016100c7565b6001600160a01b0383166101965760405162461bcd60e51b8152602060048201526024808201527f43726f776473616c653a20746f6b656e20697320746865207a65726f206164646044820152637265737360e01b60648201526084016100c7565b600082116101e65760405162461bcd60e51b815260206004820152601b60248201527f43726f776473616c653a206d696e50757263686173652069732030000000000060448201526064016100c7565b600081116102365760405162461bcd60e51b815260206004820152601b60248201527f43726f776473616c653a206d617850757263686173652069732030000000000060448201526064016100c7565b600894909455600780546001600160a01b039485166001600160a01b0319918216179091556006805493909416921691909117909155600a55600b556102e3565b600080600080600060a0868803121561028f57600080fd5b8551945060208601516102a1816102cb565b60408701519094506102b2816102cb565b6060870151608090970151959894975095949392505050565b6001600160a01b03811681146102e057600080fd5b50565b610c6a80620002f36000396000f3fe6080604052600436106100f35760003560e01c8063679aefce1161008a578063a9917dbe11610059578063a9917dbe14610295578063ec8ac4d8146102b5578063f840f72b146102c3578063f851a440146102e3576100f3565b8063679aefce14610220578063906e940014610235578063908921fc14610255578063a6ba31c114610275576100f3565b806340582f13116100c657806340582f131461019c578063481c6a75146101bb57806357341912146101db5780635c975abb146101fb576100f3565b80630754617214610103578063132996041461014057806321df0da71461015e57806327810b6e1461017c575b61010133610303565b610303565b005b34801561010f57600080fd5b50600254610123906001600160a01b031681565b6040516001600160a01b0390911681526020015b60405180910390f35b34801561014c57600080fd5b506007546001600160a01b0316610123565b34801561016a57600080fd5b506006546001600160a01b0316610123565b34801561018857600080fd5b50600354610123906001600160a01b031681565b3480156101a857600080fd5b506009545b604051908152602001610137565b3480156101c757600080fd5b50600554610123906001600160a01b031681565b3480156101e757600080fd5b506101016101f6366004610b1d565b610433565b34801561020757600080fd5b506102106104a6565b6040519015158152602001610137565b34801561022c57600080fd5b506008546101ad565b34801561024157600080fd5b50610101610250366004610b1d565b6104da565b34801561026157600080fd5b50600454610123906001600160a01b031681565b34801561028157600080fd5b50610101610290366004610b1d565b61052f565b3480156102a157600080fd5b506101016102b0366004610b1d565b610584565b6101016100fc366004610b1d565b3480156102cf57600080fd5b506101016102de366004610b1d565b6105d9565b3480156102ef57600080fd5b50600154610123906001600160a01b031681565b6002600054141561035b5760405162461bcd60e51b815260206004820152601f60248201527f5265656e7472616e637947756172643a207265656e7472616e742063616c6c0060448201526064015b60405180910390fd5b60026000556103686104a6565b156103a85760405162461bcd60e51b815260206004820152601060248201526f14185d5cd8589b194e881c185d5cd95960821b6044820152606401610352565b346103b3828261064c565b60006103be826107f8565b9050816009546103ce9190610bb7565b6009556103db838261080e565b60408051838152602081018390526001600160a01b0385169133917f6faf93231a456e552dbc9961f58d9713ee4f2e69d15f1975b050ef0911053a7b910160405180910390a361042961081c565b5050600160005550565b6001546001600160a01b0316336001600160a01b0316148061046857506004546001600160a01b0316336001600160a01b0316145b61047157600080fd5b6001600160a01b03811661048457600080fd5b600280546001600160a01b0319166001600160a01b0392909216919091179055565b6001546000906001600160a01b0316336001600160a01b0316146104c957600080fd5b50600554600160a01b900460ff1690565b6001546001600160a01b0316336001600160a01b0316146104fa57600080fd5b6001600160a01b03811661050d57600080fd5b600580546001600160a01b0319166001600160a01b0392909216919091179055565b6001546001600160a01b0316336001600160a01b03161461054f57600080fd5b6001600160a01b03811661056257600080fd5b600180546001600160a01b0319166001600160a01b0392909216919091179055565b6001546001600160a01b0316336001600160a01b0316146105a457600080fd5b6001600160a01b0381166105b757600080fd5b600480546001600160a01b0319166001600160a01b0392909216919091179055565b6001546001600160a01b0316336001600160a01b0316148061060e57506004546001600160a01b0316336001600160a01b0316145b61061757600080fd5b6001600160a01b03811661062a57600080fd5b600380546001600160a01b0319166001600160a01b0392909216919091179055565b6001600160a01b0382166106b55760405162461bcd60e51b815260206004820152602a60248201527f43726f776473616c653a2062656e656669636961727920697320746865207a65604482015269726f206164647265737360b01b6064820152608401610352565b806107025760405162461bcd60e51b815260206004820152601960248201527f43726f776473616c653a20776569416d6f756e742069732030000000000000006044820152606401610352565b6001600160a01b0382166000908152600c6020526040812054906107268383610bb7565b9050600a5481101561077a5760405162461bcd60e51b815260206004820152601f60248201527f43726f776473616c653a2050757263686173652062656c6f77206c696d6974006044820152606401610352565b600b548111156107d75760405162461bcd60e51b815260206004820152602260248201527f43726f776473616c653a205075726368617365206578636565646564206c696d6044820152611a5d60f21b6064820152608401610352565b6001600160a01b039093166000908152600c60205260409020929092555050565b6000600854826108089190610bcf565b92915050565b6108188282610858565b5050565b6007546040516001600160a01b03909116903480156108fc02916000818181858888f19350505050158015610855573d6000803e3d6000fd5b50565b600654610818906001600160a01b031683836040516001600160a01b0383166024820152604481018290526108cc90849063a9059cbb60e01b9060640160408051601f198184030181529190526020810180516001600160e01b03166001600160e01b0319909316929092179091526108d1565b505050565b6000610926826040518060400160405280602081526020017f5361666542455032303a206c6f772d6c6576656c2063616c6c206661696c6564815250856001600160a01b03166109a39092919063ffffffff16565b8051909150156108cc57808060200190518101906109449190610b46565b6108cc5760405162461bcd60e51b815260206004820152602a60248201527f5361666542455032303a204245503230206f7065726174696f6e20646964206e6044820152691bdd081cdd58d8d9595960b21b6064820152608401610352565b60606109b284846000856109bc565b90505b9392505050565b606082471015610a1d5760405162461bcd60e51b815260206004820152602660248201527f416464726573733a20696e73756666696369656e742062616c616e636520666f6044820152651c8818d85b1b60d21b6064820152608401610352565b843b610a6b5760405162461bcd60e51b815260206004820152601d60248201527f416464726573733a2063616c6c20746f206e6f6e2d636f6e74726163740000006044820152606401610352565b600080866001600160a01b03168587604051610a879190610b68565b60006040518083038185875af1925050503d8060008114610ac4576040519150601f19603f3d011682016040523d82523d6000602084013e610ac9565b606091505b5091509150610ad9828286610ae4565b979650505050505050565b60608315610af35750816109b5565b825115610b035782518084602001fd5b8160405162461bcd60e51b81526004016103529190610b84565b600060208284031215610b2f57600080fd5b81356001600160a01b03811681146109b557600080fd5b600060208284031215610b5857600080fd5b815180151581146109b557600080fd5b60008251610b7a818460208701610bee565b9190910192915050565b6020815260008251806020840152610ba3816040850160208701610bee565b601f01601f19169190910160400192915050565b60008219821115610bca57610bca610c1e565b500190565b6000816000190483118215151615610be957610be9610c1e565b500290565b60005b83811015610c09578181015183820152602001610bf1565b83811115610c18576000848401525b50505050565b634e487b7160e01b600052601160045260246000fdfea26469706673582212207b5e4123fa520d53e5186586027b2e97d7a0003e87f49f6c754b7cb30130889864736f6c63430008070033",
    "sourcePath": "c:/Users/suwan/OneDrive/Desktop/School Stuff/CODE Uni/BSC/nbc-test-hardhat/contracts/crowdsale/Crowdsale.sol",
    "compiler": {
        "name": "solc",
        "version": "0.8.7+commit.e28d00a7"
    },
    "functionHashes": {
        "admin()": "f851a440",
        "burner()": "27810b6e",
        "buyTokens(address)": "ec8ac4d8",
        "ceo()": "908921fc",
        "getRate()": "679aefce",
        "getToken()": "21df0da7",
        "getWallet()": "13299604",
        "getWeiRaised()": "40582f13",
        "manager()": "481c6a75",
        "minter()": "07546172",
        "newAdmin(address)": "a6ba31c1",
        "newBurner(address)": "f840f72b",
        "newCEO(address)": "a9917dbe",
        "newManager(address)": "906e9400",
        "newMinter(address)": "57341912",
        "paused()": "5c975abb"
    },
    "gasEstimates": {
        "creation": {
            "codeDepositCost": "635600",
            "executionCost": "infinite",
            "totalCost": "infinite"
        },
        "external": {
            "": "infinite",
            "admin()": "2414",
            "burner()": "2416",
            "buyTokens(address)": "infinite",
            "ceo()": "2393",
            "getRate()": "2315",
            "getToken()": "2388",
            "getWallet()": "2366",
            "getWeiRaised()": "2304",
            "manager()": "2371",
            "minter()": "2350",
            "newAdmin(address)": "26818",
            "newBurner(address)": "28958",
            "newCEO(address)": "26751",
            "newManager(address)": "26774",
            "newMinter(address)": "28959",
            "paused()": "4591"
        },
        "internal": {
            "_deliverTokens(address,uint256)": "infinite",
            "_forwardFunds()": "infinite",
            "_getTokenAmount(uint256)": "2233",
            "_postValidatePurchase(address,uint256)": "infinite",
            "_preValidatePurchase(address,uint256)": "infinite",
            "_processPurchase(address,uint256)": "infinite",
            "_updatePurchasingState(address,uint256)": "infinite"
        }
    }
}