{
    "contractName": "BEP721Receiver",
    "abi": [
        {
            "inputs": [
                {
                    "internalType": "address",
                    "name": "",
                    "type": "address"
                },
                {
                    "internalType": "address",
                    "name": "",
                    "type": "address"
                },
                {
                    "internalType": "uint256",
                    "name": "",
                    "type": "uint256"
                },
                {
                    "internalType": "bytes",
                    "name": "",
                    "type": "bytes"
                }
            ],
            "name": "onBEP721Received",
            "outputs": [
                {
                    "internalType": "bytes4",
                    "name": "",
                    "type": "bytes4"
                }
            ],
            "stateMutability": "nonpayable",
            "type": "function"
        }
    ],
    "bytecode": "608060405234801561001057600080fd5b506101af806100206000396000f3fe608060405234801561001057600080fd5b506004361061002b5760003560e01c806341982fc814610030575b600080fd5b61004e61003e366004610087565b63083305f960e31b949350505050565b6040516001600160e01b0319909116815260200160405180910390f35b80356001600160a01b038116811461008257600080fd5b919050565b6000806000806080858703121561009d57600080fd5b6100a68561006b565b93506100b46020860161006b565b925060408501359150606085013567ffffffffffffffff808211156100d857600080fd5b818701915087601f8301126100ec57600080fd5b8135818111156100fe576100fe610163565b604051601f8201601f19908116603f0116810190838211818310171561012657610126610163565b816040528281528a602084870101111561013f57600080fd5b82602086016020830137600060208483010152809550505050505092959194509250565b634e487b7160e01b600052604160045260246000fdfea26469706673582212201d8335382c72f69310b9035fbcddd1b26d9bceaceb49970c834d57678ae11d1564736f6c63430008070033",
    "sourcePath": "c:/Users/suwan/OneDrive/Desktop/School Stuff/CODE Uni/BSC/nbc-test-hardhat/contracts/BEP721/BEP721Receiver.sol",
    "compiler": {
        "name": "solc",
        "version": "0.8.7+commit.e28d00a7"
    },
    "functionHashes": {
        "onBEP721Received(address,address,uint256,bytes)": "41982fc8"
    },
    "gasEstimates": {
        "creation": {
            "codeDepositCost": "86200",
            "executionCost": "135",
            "totalCost": "86335"
        },
        "external": {
            "onBEP721Received(address,address,uint256,bytes)": "infinite"
        }
    }
}