{
    "contractName": "BEP721Receiver",
    "abi": [
        {
            "inputs": [
                {
                    "internalType": "address",
                    "name": "",
                    "type": "address"
                },
                {
                    "internalType": "address",
                    "name": "",
                    "type": "address"
                },
                {
                    "internalType": "uint256",
                    "name": "",
                    "type": "uint256"
                },
                {
                    "internalType": "bytes",
                    "name": "",
                    "type": "bytes"
                }
            ],
            "name": "onBEP721Received",
            "outputs": [
                {
                    "internalType": "bytes4",
                    "name": "",
                    "type": "bytes4"
                }
            ],
            "stateMutability": "pure",
            "type": "function"
        }
    ],
    "bytecode": "608060405234801561001057600080fd5b50610172806100206000396000f3fe608060405234801561001057600080fd5b506004361061002b5760003560e01c806341982fc814610030575b600080fd5b61006861003e3660046100a1565b7f41982fc8d1139065b47ae365ed93b73f87759dc0aafdb14e92b245208ad819e295945050505050565b6040516001600160e01b0319909116815260200160405180910390f35b80356001600160a01b038116811461009c57600080fd5b919050565b6000806000806000608086880312156100b957600080fd5b6100c286610085565b94506100d060208701610085565b935060408601359250606086013567ffffffffffffffff808211156100f457600080fd5b818801915088601f83011261010857600080fd5b81358181111561011757600080fd5b89602082850101111561012957600080fd5b969995985093965060200194939250505056fea26469706673582212203f0370cea9e7ea1cd4ff2bbcc4fbe7418389ca70c37a99b6febc045ed2b4dccf64736f6c63430008070033",
    "sourcePath": "c:/Users/suwan/OneDrive/Desktop/School Stuff/CODE Uni/BSC/nbc-test-hardhat/contracts/BEP721/BEP721Receiver.sol",
    "compiler": {
        "name": "solc",
        "version": "0.8.7+commit.e28d00a7"
    },
    "functionHashes": {
        "onBEP721Received(address,address,uint256,bytes)": "41982fc8"
    },
    "gasEstimates": {
        "creation": {
            "codeDepositCost": "74000",
            "executionCost": "123",
            "totalCost": "74123"
        },
        "external": {
            "onBEP721Received(address,address,uint256,bytes)": "infinite"
        }
    }
}