{
    "contractName": "BEP721",
    "abi": [
        {
            "inputs": [
                {
                    "internalType": "string",
                    "name": "name_",
                    "type": "string"
                },
                {
                    "internalType": "string",
                    "name": "symbol_",
                    "type": "string"
                }
            ],
            "stateMutability": "nonpayable",
            "type": "constructor"
        },
        {
            "anonymous": false,
            "inputs": [
                {
                    "indexed": true,
                    "internalType": "address",
                    "name": "owner",
                    "type": "address"
                },
                {
                    "indexed": true,
                    "internalType": "address",
                    "name": "approved",
                    "type": "address"
                },
                {
                    "indexed": true,
                    "internalType": "uint256",
                    "name": "tokenId",
                    "type": "uint256"
                }
            ],
            "name": "Approval",
            "type": "event"
        },
        {
            "anonymous": false,
            "inputs": [
                {
                    "indexed": true,
                    "internalType": "address",
                    "name": "owner",
                    "type": "address"
                },
                {
                    "indexed": true,
                    "internalType": "address",
                    "name": "operator",
                    "type": "address"
                },
                {
                    "indexed": false,
                    "internalType": "bool",
                    "name": "approved",
                    "type": "bool"
                }
            ],
            "name": "ApprovalForAll",
            "type": "event"
        },
        {
            "anonymous": false,
            "inputs": [
                {
                    "indexed": false,
                    "internalType": "address",
                    "name": "account",
                    "type": "address"
                }
            ],
            "name": "Paused",
            "type": "event"
        },
        {
            "anonymous": false,
            "inputs": [
                {
                    "indexed": true,
                    "internalType": "address",
                    "name": "from",
                    "type": "address"
                },
                {
                    "indexed": true,
                    "internalType": "address",
                    "name": "to",
                    "type": "address"
                },
                {
                    "indexed": true,
                    "internalType": "uint256",
                    "name": "tokenId",
                    "type": "uint256"
                }
            ],
            "name": "Transfer",
            "type": "event"
        },
        {
            "anonymous": false,
            "inputs": [
                {
                    "indexed": false,
                    "internalType": "address",
                    "name": "account",
                    "type": "address"
                }
            ],
            "name": "Unpaused",
            "type": "event"
        },
        {
            "inputs": [],
            "name": "admin",
            "outputs": [
                {
                    "internalType": "address",
                    "name": "",
                    "type": "address"
                }
            ],
            "stateMutability": "view",
            "type": "function"
        },
        {
            "inputs": [
                {
                    "internalType": "address",
                    "name": "to",
                    "type": "address"
                },
                {
                    "internalType": "uint256",
                    "name": "tokenId",
                    "type": "uint256"
                }
            ],
            "name": "approve",
            "outputs": [],
            "stateMutability": "nonpayable",
            "type": "function"
        },
        {
            "inputs": [
                {
                    "internalType": "address",
                    "name": "owner",
                    "type": "address"
                }
            ],
            "name": "balanceOf",
            "outputs": [
                {
                    "internalType": "uint256",
                    "name": "",
                    "type": "uint256"
                }
            ],
            "stateMutability": "view",
            "type": "function"
        },
        {
            "inputs": [],
            "name": "burner",
            "outputs": [
                {
                    "internalType": "address",
                    "name": "",
                    "type": "address"
                }
            ],
            "stateMutability": "view",
            "type": "function"
        },
        {
            "inputs": [],
            "name": "ceo",
            "outputs": [
                {
                    "internalType": "address",
                    "name": "",
                    "type": "address"
                }
            ],
            "stateMutability": "view",
            "type": "function"
        },
        {
            "inputs": [
                {
                    "internalType": "uint256",
                    "name": "tokenId",
                    "type": "uint256"
                }
            ],
            "name": "getApproved",
            "outputs": [
                {
                    "internalType": "address",
                    "name": "",
                    "type": "address"
                }
            ],
            "stateMutability": "view",
            "type": "function"
        },
        {
            "inputs": [
                {
                    "internalType": "address",
                    "name": "owner",
                    "type": "address"
                },
                {
                    "internalType": "address",
                    "name": "operator",
                    "type": "address"
                }
            ],
            "name": "isApprovedForAll",
            "outputs": [
                {
                    "internalType": "bool",
                    "name": "",
                    "type": "bool"
                }
            ],
            "stateMutability": "view",
            "type": "function"
        },
        {
            "inputs": [],
            "name": "manager",
            "outputs": [
                {
                    "internalType": "address",
                    "name": "",
                    "type": "address"
                }
            ],
            "stateMutability": "view",
            "type": "function"
        },
        {
            "inputs": [],
            "name": "minter",
            "outputs": [
                {
                    "internalType": "address",
                    "name": "",
                    "type": "address"
                }
            ],
            "stateMutability": "view",
            "type": "function"
        },
        {
            "inputs": [],
            "name": "name",
            "outputs": [
                {
                    "internalType": "string",
                    "name": "",
                    "type": "string"
                }
            ],
            "stateMutability": "view",
            "type": "function"
        },
        {
            "inputs": [
                {
                    "internalType": "address",
                    "name": "_newAdmin",
                    "type": "address"
                }
            ],
            "name": "newAdmin",
            "outputs": [],
            "stateMutability": "nonpayable",
            "type": "function"
        },
        {
            "inputs": [
                {
                    "internalType": "address",
                    "name": "_newBurner",
                    "type": "address"
                }
            ],
            "name": "newBurner",
            "outputs": [],
            "stateMutability": "nonpayable",
            "type": "function"
        },
        {
            "inputs": [
                {
                    "internalType": "address",
                    "name": "_newCEO",
                    "type": "address"
                }
            ],
            "name": "newCEO",
            "outputs": [],
            "stateMutability": "nonpayable",
            "type": "function"
        },
        {
            "inputs": [
                {
                    "internalType": "address",
                    "name": "_newManager",
                    "type": "address"
                }
            ],
            "name": "newManager",
            "outputs": [],
            "stateMutability": "nonpayable",
            "type": "function"
        },
        {
            "inputs": [
                {
                    "internalType": "address",
                    "name": "_newMinter",
                    "type": "address"
                }
            ],
            "name": "newMinter",
            "outputs": [],
            "stateMutability": "nonpayable",
            "type": "function"
        },
        {
            "inputs": [
                {
                    "internalType": "uint256",
                    "name": "tokenId",
                    "type": "uint256"
                }
            ],
            "name": "ownerOf",
            "outputs": [
                {
                    "internalType": "address",
                    "name": "",
                    "type": "address"
                }
            ],
            "stateMutability": "view",
            "type": "function"
        },
        {
            "inputs": [],
            "name": "pause",
            "outputs": [],
            "stateMutability": "nonpayable",
            "type": "function"
        },
        {
            "inputs": [],
            "name": "paused",
            "outputs": [
                {
                    "internalType": "bool",
                    "name": "",
                    "type": "bool"
                }
            ],
            "stateMutability": "view",
            "type": "function"
        },
        {
            "inputs": [
                {
                    "internalType": "address",
                    "name": "from",
                    "type": "address"
                },
                {
                    "internalType": "address",
                    "name": "to",
                    "type": "address"
                },
                {
                    "internalType": "uint256",
                    "name": "tokenId",
                    "type": "uint256"
                }
            ],
            "name": "safeTransferFrom",
            "outputs": [],
            "stateMutability": "nonpayable",
            "type": "function"
        },
        {
            "inputs": [
                {
                    "internalType": "address",
                    "name": "from",
                    "type": "address"
                },
                {
                    "internalType": "address",
                    "name": "to",
                    "type": "address"
                },
                {
                    "internalType": "uint256",
                    "name": "tokenId",
                    "type": "uint256"
                },
                {
                    "internalType": "bytes",
                    "name": "_data",
                    "type": "bytes"
                }
            ],
            "name": "safeTransferFrom",
            "outputs": [],
            "stateMutability": "nonpayable",
            "type": "function"
        },
        {
            "inputs": [
                {
                    "internalType": "address",
                    "name": "operator",
                    "type": "address"
                },
                {
                    "internalType": "bool",
                    "name": "approved",
                    "type": "bool"
                }
            ],
            "name": "setApprovalForAll",
            "outputs": [],
            "stateMutability": "nonpayable",
            "type": "function"
        },
        {
            "inputs": [
                {
                    "internalType": "bytes4",
                    "name": "interfaceId",
                    "type": "bytes4"
                }
            ],
            "name": "supportsInterface",
            "outputs": [
                {
                    "internalType": "bool",
                    "name": "",
                    "type": "bool"
                }
            ],
            "stateMutability": "view",
            "type": "function"
        },
        {
            "inputs": [],
            "name": "symbol",
            "outputs": [
                {
                    "internalType": "string",
                    "name": "",
                    "type": "string"
                }
            ],
            "stateMutability": "view",
            "type": "function"
        },
        {
            "inputs": [
                {
                    "internalType": "uint256",
                    "name": "tokenId",
                    "type": "uint256"
                }
            ],
            "name": "tokenURI",
            "outputs": [
                {
                    "internalType": "string",
                    "name": "",
                    "type": "string"
                }
            ],
            "stateMutability": "view",
            "type": "function"
        },
        {
            "inputs": [
                {
                    "internalType": "address",
                    "name": "from",
                    "type": "address"
                },
                {
                    "internalType": "address",
                    "name": "to",
                    "type": "address"
                },
                {
                    "internalType": "uint256",
                    "name": "tokenId",
                    "type": "uint256"
                }
            ],
            "name": "transferFrom",
            "outputs": [],
            "stateMutability": "nonpayable",
            "type": "function"
        },
        {
            "inputs": [],
            "name": "unpause",
            "outputs": [],
            "stateMutability": "nonpayable",
            "type": "function"
        }
    ],
    "bytecode": "60806040523480156200001157600080fd5b5060405162001b0038038062001b0083398101604081905262000034916200020d565b60008054336001600160a01b0319918216811790925560018054821683179055600280548216831790556003805490911682179055600480546001600160a81b0319169091179055815162000091906005906020850190620000b0565b508051620000a7906006906020840190620000b0565b505050620002ca565b828054620000be9062000277565b90600052602060002090601f016020900481019282620000e257600085556200012d565b82601f10620000fd57805160ff19168380011785556200012d565b828001600101855582156200012d579182015b828111156200012d57825182559160200191906001019062000110565b506200013b9291506200013f565b5090565b5b808211156200013b576000815560010162000140565b600082601f8301126200016857600080fd5b81516001600160401b0380821115620001855762000185620002b4565b604051601f8301601f19908116603f01168101908282118183101715620001b057620001b0620002b4565b81604052838152602092508683858801011115620001cd57600080fd5b600091505b83821015620001f15785820183015181830184015290820190620001d2565b83821115620002035760008385830101525b9695505050505050565b600080604083850312156200022157600080fd5b82516001600160401b03808211156200023957600080fd5b620002478683870162000156565b935060208501519150808211156200025e57600080fd5b506200026d8582860162000156565b9150509250929050565b600181811c908216806200028c57607f821691505b60208210811415620002ae57634e487b7160e01b600052602260045260246000fd5b50919050565b634e487b7160e01b600052604160045260246000fd5b61182680620002da6000396000f3fe608060405234801561001057600080fd5b506004361061018e5760003560e01c806370a08231116100de578063a6ba31c111610097578063c87b56dd11610071578063c87b56dd14610352578063e985e9c514610365578063f840f72b146103a1578063f851a440146103b457600080fd5b8063a6ba31c114610319578063a9917dbe1461032c578063b88d4fde1461033f57600080fd5b806370a08231146102af5780638456cb59146102d0578063906e9400146102d8578063908921fc146102eb57806395d89b41146102fe578063a22cb4651461030657600080fd5b806327810b6e1161014b578063481c6a7511610125578063481c6a751461026457806357341912146102775780635c975abb1461028a5780636352211e1461029c57600080fd5b806327810b6e146102365780633f4ba83a1461024957806342842e0e1461025157600080fd5b806301ffc9a71461019357806306fdde03146101bb57806307546172146101d0578063081812fc146101fb578063095ea7b31461020e57806323b872dd14610223575b600080fd5b6101a66101a13660046114db565b6103c7565b60405190151581526020015b60405180910390f35b6101c3610419565b6040516101b291906115c6565b6001546101e3906001600160a01b031681565b6040516001600160a01b0390911681526020016101b2565b6101e3610209366004611515565b6104ab565b61022161021c3660046114b1565b610545565b005b61022161023136600461135d565b610685565b6002546101e3906001600160a01b031681565b6102216106e0565b61022161025f36600461135d565b61079d565b6004546101e3906001600160a01b031681565b61022161028536600461130f565b6107e2565b600454600160a01b900460ff166101a6565b6101e36102aa366004611515565b610855565b6102c26102bd36600461130f565b6108cc565b6040519081526020016101b2565b610221610953565b6102216102e636600461130f565b6109d8565b6003546101e3906001600160a01b031681565b6101c3610a4b565b610221610314366004611475565b610a5a565b61022161032736600461130f565b610b49565b61022161033a36600461130f565b610b9e565b61022161034d366004611399565b610bf3565b6101c3610360366004611515565b610c55565b6101a661037336600461132a565b6001600160a01b039182166000908152600a6020908152604080832093909416825291909152205460ff1690565b6102216103af36600461130f565b610d3d565b6000546101e3906001600160a01b031681565b60006001600160e01b031982166380ac58cd60e01b14806103f857506001600160e01b03198216635b5e139f60e01b145b8061041357506301ffc9a760e01b6001600160e01b03198316145b92915050565b60606005805461042890611715565b80601f016020809104026020016040519081016040528092919081815260200182805461045490611715565b80156104a15780601f10610476576101008083540402835291602001916104a1565b820191906000526020600020905b81548152906001019060200180831161048457829003601f168201915b5050505050905090565b6000818152600760205260408120546001600160a01b03166105295760405162461bcd60e51b815260206004820152602c60248201527f4245503732313a20617070726f76656420717565727920666f72206e6f6e657860448201526b34b9ba32b73a103a37b5b2b760a11b60648201526084015b60405180910390fd5b506000908152600960205260409020546001600160a01b031690565b600454600160a01b900460ff161561056f5760405162461bcd60e51b8152600401610520906115d9565b600061057a82610855565b9050806001600160a01b0316836001600160a01b031614156105e85760405162461bcd60e51b815260206004820152602160248201527f4245503732313a20617070726f76616c20746f2063757272656e74206f776e656044820152603960f91b6064820152608401610520565b336001600160a01b038216148061060457506106048133610373565b6106765760405162461bcd60e51b815260206004820152603860248201527f4245503732313a20617070726f76652063616c6c6572206973206e6f74206f7760448201527f6e6572206e6f7220617070726f76656420666f7220616c6c00000000000000006064820152608401610520565b6106808383610db0565b505050565b600454600160a01b900460ff16156106af5760405162461bcd60e51b8152600401610520906115d9565b6106b93382610e1e565b6106d55760405162461bcd60e51b815260040161052090611603565b610680838383610f15565b600454600160a01b900460ff166107305760405162461bcd60e51b815260206004820152601460248201527314185d5cd8589b194e881b9bdd081c185d5cd95960621b6044820152606401610520565b6000546001600160a01b0316336001600160a01b03161461075057600080fd5b6004805460ff60a01b191690557f5db9ee0a495bf2e6ff9c91a7834c1ba4fdd244a5e8aa4e537bd38aeae4b073aa335b6040516001600160a01b03909116815260200160405180910390a1565b600454600160a01b900460ff16156107c75760405162461bcd60e51b8152600401610520906115d9565b61068083838360405180602001604052806000815250610bf3565b6000546001600160a01b0316336001600160a01b0316148061081757506003546001600160a01b0316336001600160a01b0316145b61082057600080fd5b6001600160a01b03811661083357600080fd5b600180546001600160a01b0319166001600160a01b0392909216919091179055565b6000818152600760205260408120546001600160a01b0316806104135760405162461bcd60e51b815260206004820152602960248201527f4245503732313a206f776e657220717565727920666f72206e6f6e657869737460448201526832b73a103a37b5b2b760b91b6064820152608401610520565b60006001600160a01b0382166109375760405162461bcd60e51b815260206004820152602a60248201527f4245503732313a2062616c616e636520717565727920666f7220746865207a65604482015269726f206164647265737360b01b6064820152608401610520565b506001600160a01b031660009081526008602052604090205490565b600454600160a01b900460ff161561097d5760405162461bcd60e51b8152600401610520906115d9565b6000546001600160a01b0316336001600160a01b03161461099d57600080fd5b6004805460ff60a01b1916600160a01b1790557f62e78cea01bee320cd4e420270b5ea74000d11b0c9f74754ebdbfc544b05a2586107803390565b6000546001600160a01b0316336001600160a01b03161480610a0d57506003546001600160a01b0316336001600160a01b0316145b610a1657600080fd5b6001600160a01b038116610a2957600080fd5b600480546001600160a01b0319166001600160a01b0392909216919091179055565b60606006805461042890611715565b600454600160a01b900460ff1615610a845760405162461bcd60e51b8152600401610520906115d9565b6001600160a01b038216331415610add5760405162461bcd60e51b815260206004820152601960248201527f4245503732313a20617070726f766520746f2063616c6c6572000000000000006044820152606401610520565b336000818152600a602090815260408083206001600160a01b03871680855290835292819020805460ff191686151590811790915590519081529192917f17307eab39ab6107e8899845ad3d59bd9653f200f220920489ca2b5937696c31910160405180910390a35050565b6000546001600160a01b0316336001600160a01b031614610b6957600080fd5b6001600160a01b038116610b7c57600080fd5b600080546001600160a01b0319166001600160a01b0392909216919091179055565b6000546001600160a01b0316336001600160a01b031614610bbe57600080fd5b6001600160a01b038116610bd157600080fd5b600380546001600160a01b0319166001600160a01b0392909216919091179055565b600454600160a01b900460ff1615610c1d5760405162461bcd60e51b8152600401610520906115d9565b610c273383610e1e565b610c435760405162461bcd60e51b815260040161052090611603565b610c4f848484846110b5565b50505050565b6000818152600760205260409020546060906001600160a01b0316610cd45760405162461bcd60e51b815260206004820152602f60248201527f4245503732314d657461646174613a2055524920717565727920666f72206e6f60448201526e3732bc34b9ba32b73a103a37b5b2b760891b6064820152608401610520565b6000610ceb60408051602081019091526000815290565b90506000815111610d0b5760405180602001604052806000815250610d36565b80610d15846110e8565b604051602001610d2692919061155a565b6040516020818303038152906040525b9392505050565b6000546001600160a01b0316336001600160a01b03161480610d7257506003546001600160a01b0316336001600160a01b0316145b610d7b57600080fd5b6001600160a01b038116610d8e57600080fd5b600280546001600160a01b0319166001600160a01b0392909216919091179055565b600081815260096020526040902080546001600160a01b0319166001600160a01b0384169081179091558190610de582610855565b6001600160a01b03167f8c5be1e5ebec7d5bd14f71427d1e84f3dd0314c0f7b2291e5b200ac8c7c3b92560405160405180910390a45050565b6000818152600760205260408120546001600160a01b0316610e975760405162461bcd60e51b815260206004820152602c60248201527f4245503732313a206f70657261746f7220717565727920666f72206e6f6e657860448201526b34b9ba32b73a103a37b5b2b760a11b6064820152608401610520565b6000610ea283610855565b9050806001600160a01b0316846001600160a01b03161480610edd5750836001600160a01b0316610ed2846104ab565b6001600160a01b0316145b80610f0d57506001600160a01b038082166000908152600a602090815260408083209388168352929052205460ff165b949350505050565b826001600160a01b0316610f2882610855565b6001600160a01b031614610f905760405162461bcd60e51b815260206004820152602960248201527f4245503732313a207472616e73666572206f6620746f6b656e2074686174206960448201526839903737ba1037bbb760b91b6064820152608401610520565b6001600160a01b038216610ff25760405162461bcd60e51b8152602060048201526024808201527f4245503732313a207472616e7366657220746f20746865207a65726f206164646044820152637265737360e01b6064820152608401610520565b610ffd600082610db0565b6001600160a01b03831660009081526008602052604081208054600192906110269084906116d2565b90915550506001600160a01b03821660009081526008602052604081208054600192906110549084906116a6565b909155505060008181526007602052604080822080546001600160a01b0319166001600160a01b0386811691821790925591518493918716917fddf252ad1be2c89b69c2b068fc378daa952ba7f163c4a11628f55a4df523b3ef91a4505050565b6110c0848484610f15565b6110cc848484846111e6565b610c4f5760405162461bcd60e51b815260040161052090611654565b60608161110c5750506040805180820190915260018152600360fc1b602082015290565b8160005b8115611136578061112081611750565b915061112f9050600a836116be565b9150611110565b60008167ffffffffffffffff811115611151576111516117c1565b6040519080825280601f01601f19166020018201604052801561117b576020820181803683370190505b5090505b8415610f0d576111906001836116d2565b915061119d600a8661176b565b6111a89060306116a6565b60f81b8183815181106111bd576111bd6117ab565b60200101906001600160f81b031916908160001a9053506111df600a866116be565b945061117f565b60006001600160a01b0384163b156112e85760405163083305f960e31b81526001600160a01b038516906341982fc89061122a903390899088908890600401611589565b602060405180830381600087803b15801561124457600080fd5b505af1925050508015611274575060408051601f3d908101601f19168201909252611271918101906114f8565b60015b6112ce573d8080156112a2576040519150601f19603f3d011682016040523d82523d6000602084013e6112a7565b606091505b5080516112c65760405162461bcd60e51b815260040161052090611654565b805181602001fd5b6001600160e01b03191663083305f960e31b149050610f0d565b506001949350505050565b80356001600160a01b038116811461130a57600080fd5b919050565b60006020828403121561132157600080fd5b610d36826112f3565b6000806040838503121561133d57600080fd5b611346836112f3565b9150611354602084016112f3565b90509250929050565b60008060006060848603121561137257600080fd5b61137b846112f3565b9250611389602085016112f3565b9150604084013590509250925092565b600080600080608085870312156113af57600080fd5b6113b8856112f3565b93506113c6602086016112f3565b925060408501359150606085013567ffffffffffffffff808211156113ea57600080fd5b818701915087601f8301126113fe57600080fd5b813581811115611410576114106117c1565b604051601f8201601f19908116603f01168101908382118183101715611438576114386117c1565b816040528281528a602084870101111561145157600080fd5b82602086016020830137600060208483010152809550505050505092959194509250565b6000806040838503121561148857600080fd5b611491836112f3565b9150602083013580151581146114a657600080fd5b809150509250929050565b600080604083850312156114c457600080fd5b6114cd836112f3565b946020939093013593505050565b6000602082840312156114ed57600080fd5b8135610d36816117d7565b60006020828403121561150a57600080fd5b8151610d36816117d7565b60006020828403121561152757600080fd5b5035919050565b600081518084526115468160208601602086016116e9565b601f01601f19169290920160200192915050565b6000835161156c8184602088016116e9565b8351908301906115808183602088016116e9565b01949350505050565b6001600160a01b03858116825284166020820152604081018390526080606082018190526000906115bc9083018461152e565b9695505050505050565b602081526000610d36602083018461152e565b60208082526010908201526f14185d5cd8589b194e881c185d5cd95960821b604082015260600190565b60208082526031908201527f4245503732313a207472616e736665722063616c6c6572206973206e6f74206f6040820152701ddb995c881b9bdc88185c1c1c9bdd9959607a1b606082015260800190565b60208082526032908201527f4245503732313a207472616e7366657220746f206e6f6e20424550373231526560408201527131b2b4bb32b91034b6b83632b6b2b73a32b960711b606082015260800190565b600082198211156116b9576116b961177f565b500190565b6000826116cd576116cd611795565b500490565b6000828210156116e4576116e461177f565b500390565b60005b838110156117045781810151838201526020016116ec565b83811115610c4f5750506000910152565b600181811c9082168061172957607f821691505b6020821081141561174a57634e487b7160e01b600052602260045260246000fd5b50919050565b60006000198214156117645761176461177f565b5060010190565b60008261177a5761177a611795565b500690565b634e487b7160e01b600052601160045260246000fd5b634e487b7160e01b600052601260045260246000fd5b634e487b7160e01b600052603260045260246000fd5b634e487b7160e01b600052604160045260246000fd5b6001600160e01b0319811681146117ed57600080fd5b5056fea264697066735822122095a6953927990a0084167a6913ed370fb9fd4b34792e86c2f6e5d3bbe5a9bd7964736f6c63430008070033",
    "sourcePath": "c:/Users/suwan/OneDrive/Desktop/School Stuff/CODE Uni/BSC/nbc-test-hardhat/contracts/BEP721/BEP721.sol",
    "compiler": {
        "name": "solc",
        "version": "0.8.7+commit.e28d00a7"
    },
    "functionHashes": {
        "admin()": "f851a440",
        "approve(address,uint256)": "095ea7b3",
        "balanceOf(address)": "70a08231",
        "burner()": "27810b6e",
        "ceo()": "908921fc",
        "getApproved(uint256)": "081812fc",
        "isApprovedForAll(address,address)": "e985e9c5",
        "manager()": "481c6a75",
        "minter()": "07546172",
        "name()": "06fdde03",
        "newAdmin(address)": "a6ba31c1",
        "newBurner(address)": "f840f72b",
        "newCEO(address)": "a9917dbe",
        "newManager(address)": "906e9400",
        "newMinter(address)": "57341912",
        "ownerOf(uint256)": "6352211e",
        "pause()": "8456cb59",
        "paused()": "5c975abb",
        "safeTransferFrom(address,address,uint256)": "42842e0e",
        "safeTransferFrom(address,address,uint256,bytes)": "b88d4fde",
        "setApprovalForAll(address,bool)": "a22cb465",
        "supportsInterface(bytes4)": "01ffc9a7",
        "symbol()": "95d89b41",
        "tokenURI(uint256)": "c87b56dd",
        "transferFrom(address,address,uint256)": "23b872dd",
        "unpause()": "3f4ba83a"
    },
    "gasEstimates": {
        "creation": {
            "codeDepositCost": "1236400",
            "executionCost": "infinite",
            "totalCost": "infinite"
        },
        "external": {
            "admin()": "2447",
            "approve(address,uint256)": "infinite",
            "balanceOf(address)": "2612",
            "burner()": "2383",
            "ceo()": "2426",
            "getApproved(uint256)": "4782",
            "isApprovedForAll(address,address)": "infinite",
            "manager()": "2382",
            "minter()": "2405",
            "name()": "infinite",
            "newAdmin(address)": "26809",
            "newBurner(address)": "29015",
            "newCEO(address)": "26831",
            "newManager(address)": "28994",
            "newMinter(address)": "28994",
            "ownerOf(uint256)": "2667",
            "pause()": "29818",
            "paused()": "2399",
            "safeTransferFrom(address,address,uint256)": "infinite",
            "safeTransferFrom(address,address,uint256,bytes)": "infinite",
            "setApprovalForAll(address,bool)": "28904",
            "supportsInterface(bytes4)": "534",
            "symbol()": "infinite",
            "tokenURI(uint256)": "infinite",
            "transferFrom(address,address,uint256)": "infinite",
            "unpause()": "29812"
        },
        "internal": {
            "_approve(address,uint256)": "infinite",
            "_baseURI()": "infinite",
            "_beforeTokenTransfer(address,address,uint256)": "infinite",
            "_burn(uint256)": "infinite",
            "_checkOnBEP721Received(address,address,uint256,bytes memory)": "infinite",
            "_exists(uint256)": "infinite",
            "_isApprovedOrOwner(address,uint256)": "infinite",
            "_mint(address,uint256)": "infinite",
            "_safeMint(address,uint256)": "infinite",
            "_safeMint(address,uint256,bytes memory)": "infinite",
            "_safeTransfer(address,address,uint256,bytes memory)": "infinite",
            "_transfer(address,address,uint256)": "infinite"
        }
    }
}