{
    "contractName": "BEP20",
    "abi": [
        {
            "inputs": [
                {
                    "internalType": "string",
                    "name": "name_",
                    "type": "string"
                },
                {
                    "internalType": "string",
                    "name": "symbol_",
                    "type": "string"
                }
            ],
            "stateMutability": "nonpayable",
            "type": "constructor"
        },
        {
            "anonymous": false,
            "inputs": [
                {
                    "indexed": true,
                    "internalType": "address",
                    "name": "owner",
                    "type": "address"
                },
                {
                    "indexed": true,
                    "internalType": "address",
                    "name": "spender",
                    "type": "address"
                },
                {
                    "indexed": false,
                    "internalType": "uint256",
                    "name": "value",
                    "type": "uint256"
                }
            ],
            "name": "Approval",
            "type": "event"
        },
        {
            "anonymous": false,
            "inputs": [
                {
                    "indexed": true,
                    "internalType": "address",
                    "name": "_owner",
                    "type": "address"
                },
                {
                    "indexed": true,
                    "internalType": "address",
                    "name": "_spender",
                    "type": "address"
                },
                {
                    "indexed": false,
                    "internalType": "uint256",
                    "name": "_oldValue",
                    "type": "uint256"
                },
                {
                    "indexed": false,
                    "internalType": "uint256",
                    "name": "_value",
                    "type": "uint256"
                }
            ],
            "name": "Approved",
            "type": "event"
        },
        {
            "anonymous": false,
            "inputs": [
                {
                    "indexed": true,
                    "internalType": "address",
                    "name": "by",
                    "type": "address"
                },
                {
                    "indexed": true,
                    "internalType": "address",
                    "name": "from",
                    "type": "address"
                },
                {
                    "indexed": false,
                    "internalType": "uint256",
                    "name": "value",
                    "type": "uint256"
                }
            ],
            "name": "Burnt",
            "type": "event"
        },
        {
            "anonymous": false,
            "inputs": [
                {
                    "indexed": true,
                    "internalType": "address",
                    "name": "from",
                    "type": "address"
                },
                {
                    "indexed": true,
                    "internalType": "address",
                    "name": "to",
                    "type": "address"
                },
                {
                    "indexed": false,
                    "internalType": "uint256",
                    "name": "value",
                    "type": "uint256"
                }
            ],
            "name": "Minted",
            "type": "event"
        },
        {
            "anonymous": false,
            "inputs": [
                {
                    "indexed": false,
                    "internalType": "address",
                    "name": "account",
                    "type": "address"
                }
            ],
            "name": "Paused",
            "type": "event"
        },
        {
            "anonymous": false,
            "inputs": [
                {
                    "indexed": true,
                    "internalType": "address",
                    "name": "from",
                    "type": "address"
                },
                {
                    "indexed": true,
                    "internalType": "address",
                    "name": "to",
                    "type": "address"
                },
                {
                    "indexed": false,
                    "internalType": "uint256",
                    "name": "value",
                    "type": "uint256"
                }
            ],
            "name": "Transfer",
            "type": "event"
        },
        {
            "anonymous": false,
            "inputs": [
                {
                    "indexed": true,
                    "internalType": "address",
                    "name": "_by",
                    "type": "address"
                },
                {
                    "indexed": true,
                    "internalType": "address",
                    "name": "_from",
                    "type": "address"
                },
                {
                    "indexed": true,
                    "internalType": "address",
                    "name": "_to",
                    "type": "address"
                },
                {
                    "indexed": false,
                    "internalType": "uint256",
                    "name": "_value",
                    "type": "uint256"
                }
            ],
            "name": "Transferred",
            "type": "event"
        },
        {
            "anonymous": false,
            "inputs": [
                {
                    "indexed": false,
                    "internalType": "address",
                    "name": "account",
                    "type": "address"
                }
            ],
            "name": "Unpaused",
            "type": "event"
        },
        {
            "inputs": [],
            "name": "admin",
            "outputs": [
                {
                    "internalType": "address",
                    "name": "",
                    "type": "address"
                }
            ],
            "stateMutability": "view",
            "type": "function"
        },
        {
            "inputs": [
                {
                    "internalType": "address",
                    "name": "_owner",
                    "type": "address"
                },
                {
                    "internalType": "address",
                    "name": "spender",
                    "type": "address"
                }
            ],
            "name": "allowance",
            "outputs": [
                {
                    "internalType": "uint256",
                    "name": "",
                    "type": "uint256"
                }
            ],
            "stateMutability": "view",
            "type": "function"
        },
        {
            "inputs": [
                {
                    "internalType": "address",
                    "name": "spender",
                    "type": "address"
                },
                {
                    "internalType": "uint256",
                    "name": "amount",
                    "type": "uint256"
                }
            ],
            "name": "approve",
            "outputs": [
                {
                    "internalType": "bool",
                    "name": "",
                    "type": "bool"
                }
            ],
            "stateMutability": "nonpayable",
            "type": "function"
        },
        {
            "inputs": [
                {
                    "internalType": "address",
                    "name": "account",
                    "type": "address"
                }
            ],
            "name": "balanceOf",
            "outputs": [
                {
                    "internalType": "uint256",
                    "name": "",
                    "type": "uint256"
                }
            ],
            "stateMutability": "view",
            "type": "function"
        },
        {
            "inputs": [],
            "name": "burner",
            "outputs": [
                {
                    "internalType": "address",
                    "name": "",
                    "type": "address"
                }
            ],
            "stateMutability": "view",
            "type": "function"
        },
        {
            "inputs": [],
            "name": "ceo",
            "outputs": [
                {
                    "internalType": "address",
                    "name": "",
                    "type": "address"
                }
            ],
            "stateMutability": "view",
            "type": "function"
        },
        {
            "inputs": [],
            "name": "decimals",
            "outputs": [
                {
                    "internalType": "uint8",
                    "name": "",
                    "type": "uint8"
                }
            ],
            "stateMutability": "view",
            "type": "function"
        },
        {
            "inputs": [
                {
                    "internalType": "address",
                    "name": "spender",
                    "type": "address"
                },
                {
                    "internalType": "uint256",
                    "name": "subtractedValue",
                    "type": "uint256"
                }
            ],
            "name": "decreaseAllowance",
            "outputs": [
                {
                    "internalType": "bool",
                    "name": "",
                    "type": "bool"
                }
            ],
            "stateMutability": "nonpayable",
            "type": "function"
        },
        {
            "inputs": [
                {
                    "internalType": "address",
                    "name": "spender",
                    "type": "address"
                },
                {
                    "internalType": "uint256",
                    "name": "addedValue",
                    "type": "uint256"
                }
            ],
            "name": "increaseAllowance",
            "outputs": [
                {
                    "internalType": "bool",
                    "name": "",
                    "type": "bool"
                }
            ],
            "stateMutability": "nonpayable",
            "type": "function"
        },
        {
            "inputs": [],
            "name": "manager",
            "outputs": [
                {
                    "internalType": "address",
                    "name": "",
                    "type": "address"
                }
            ],
            "stateMutability": "view",
            "type": "function"
        },
        {
            "inputs": [],
            "name": "minter",
            "outputs": [
                {
                    "internalType": "address",
                    "name": "",
                    "type": "address"
                }
            ],
            "stateMutability": "view",
            "type": "function"
        },
        {
            "inputs": [],
            "name": "name",
            "outputs": [
                {
                    "internalType": "string",
                    "name": "",
                    "type": "string"
                }
            ],
            "stateMutability": "view",
            "type": "function"
        },
        {
            "inputs": [
                {
                    "internalType": "address",
                    "name": "_newAdmin",
                    "type": "address"
                }
            ],
            "name": "newAdmin",
            "outputs": [],
            "stateMutability": "nonpayable",
            "type": "function"
        },
        {
            "inputs": [
                {
                    "internalType": "address",
                    "name": "_newBurner",
                    "type": "address"
                }
            ],
            "name": "newBurner",
            "outputs": [],
            "stateMutability": "nonpayable",
            "type": "function"
        },
        {
            "inputs": [
                {
                    "internalType": "address",
                    "name": "_newCEO",
                    "type": "address"
                }
            ],
            "name": "newCEO",
            "outputs": [],
            "stateMutability": "nonpayable",
            "type": "function"
        },
        {
            "inputs": [
                {
                    "internalType": "address",
                    "name": "_newManager",
                    "type": "address"
                }
            ],
            "name": "newManager",
            "outputs": [],
            "stateMutability": "nonpayable",
            "type": "function"
        },
        {
            "inputs": [
                {
                    "internalType": "address",
                    "name": "_newMinter",
                    "type": "address"
                }
            ],
            "name": "newMinter",
            "outputs": [],
            "stateMutability": "nonpayable",
            "type": "function"
        },
        {
            "inputs": [],
            "name": "pause",
            "outputs": [],
            "stateMutability": "nonpayable",
            "type": "function"
        },
        {
            "inputs": [],
            "name": "paused",
            "outputs": [
                {
                    "internalType": "bool",
                    "name": "",
                    "type": "bool"
                }
            ],
            "stateMutability": "view",
            "type": "function"
        },
        {
            "inputs": [],
            "name": "symbol",
            "outputs": [
                {
                    "internalType": "string",
                    "name": "",
                    "type": "string"
                }
            ],
            "stateMutability": "view",
            "type": "function"
        },
        {
            "inputs": [],
            "name": "totalSupply",
            "outputs": [
                {
                    "internalType": "uint256",
                    "name": "",
                    "type": "uint256"
                }
            ],
            "stateMutability": "view",
            "type": "function"
        },
        {
            "inputs": [
                {
                    "internalType": "address",
                    "name": "recipient",
                    "type": "address"
                },
                {
                    "internalType": "uint256",
                    "name": "amount",
                    "type": "uint256"
                }
            ],
            "name": "transfer",
            "outputs": [
                {
                    "internalType": "bool",
                    "name": "",
                    "type": "bool"
                }
            ],
            "stateMutability": "nonpayable",
            "type": "function"
        },
        {
            "inputs": [
                {
                    "internalType": "address",
                    "name": "sender",
                    "type": "address"
                },
                {
                    "internalType": "address",
                    "name": "recipient",
                    "type": "address"
                },
                {
                    "internalType": "uint256",
                    "name": "amount",
                    "type": "uint256"
                }
            ],
            "name": "transferFrom",
            "outputs": [
                {
                    "internalType": "bool",
                    "name": "",
                    "type": "bool"
                }
            ],
            "stateMutability": "nonpayable",
            "type": "function"
        },
        {
            "inputs": [],
            "name": "unpause",
            "outputs": [],
            "stateMutability": "nonpayable",
            "type": "function"
        }
    ],
    "bytecode": "60806040523480156200001157600080fd5b50604051620011a7380380620011a783398101604081905262000034916200021a565b60008054336001600160a01b0319918216811790925560018054821683179055600280548216831790556003805490911682179055600480546001600160a81b0319169091179055815162000091906008906020850190620000bd565b508051620000a7906009906020840190620000bd565b5050600a805460ff1916601217905550620002d7565b828054620000cb9062000284565b90600052602060002090601f016020900481019282620000ef57600085556200013a565b82601f106200010a57805160ff19168380011785556200013a565b828001600101855582156200013a579182015b828111156200013a5782518255916020019190600101906200011d565b50620001489291506200014c565b5090565b5b808211156200014857600081556001016200014d565b600082601f8301126200017557600080fd5b81516001600160401b0380821115620001925762000192620002c1565b604051601f8301601f19908116603f01168101908282118183101715620001bd57620001bd620002c1565b81604052838152602092508683858801011115620001da57600080fd5b600091505b83821015620001fe5785820183015181830184015290820190620001df565b83821115620002105760008385830101525b9695505050505050565b600080604083850312156200022e57600080fd5b82516001600160401b03808211156200024657600080fd5b620002548683870162000163565b935060208501519150808211156200026b57600080fd5b506200027a8582860162000163565b9150509250929050565b600181811c908216806200029957607f821691505b60208210811415620002bb57634e487b7160e01b600052602260045260246000fd5b50919050565b634e487b7160e01b600052604160045260246000fd5b610ec080620002e76000396000f3fe608060405234801561001057600080fd5b50600436106101585760003560e01c806370a08231116100c3578063a6ba31c11161007c578063a6ba31c1146102dd578063a9059cbb146102f0578063a9917dbe14610303578063dd62ed3e14610316578063f840f72b1461034f578063f851a4401461036257600080fd5b806370a082311461026b5780638456cb5914610294578063906e94001461029c578063908921fc146102af57806395d89b41146102c2578063a457c2d7146102ca57600080fd5b8063313ce56711610115578063313ce5671461020157806339509351146102165780633f4ba83a14610229578063481c6a751461023357806357341912146102465780635c975abb1461025957600080fd5b806306fdde031461015d578063075461721461017b578063095ea7b3146101a657806318160ddd146101c957806323b872dd146101db57806327810b6e146101ee575b600080fd5b610165610375565b6040516101729190610daa565b60405180910390f35b60015461018e906001600160a01b031681565b6040516001600160a01b039091168152602001610172565b6101b96101b4366004610d80565b610407565b6040519015158152602001610172565b6007545b604051908152602001610172565b6101b96101e9366004610d44565b610451565b60025461018e906001600160a01b031681565b600a5460405160ff9091168152602001610172565b6101b9610224366004610d80565b610526565b61023161058e565b005b60045461018e906001600160a01b031681565b610231610254366004610cef565b61064b565b600454600160a01b900460ff166101b9565b6101cd610279366004610cef565b6001600160a01b031660009081526005602052604090205490565b6102316106be565b6102316102aa366004610cef565b610743565b60035461018e906001600160a01b031681565b6101656107b6565b6101b96102d8366004610d80565b6107c5565b6102316102eb366004610cef565b61088b565b6101b96102fe366004610d80565b6108e0565b610231610311366004610cef565b610918565b6101cd610324366004610d11565b6001600160a01b03918216600090815260066020908152604080832093909416825291909152205490565b61023161035d366004610cef565b61096d565b60005461018e906001600160a01b031681565b60606008805461038490610e4f565b80601f01602080910402602001604051908101604052809291908181526020018280546103b090610e4f565b80156103fd5780601f106103d2576101008083540402835291602001916103fd565b820191906000526020600020905b8154815290600101906020018083116103e057829003601f168201915b5050505050905090565b600454600090600160a01b900460ff161561043d5760405162461bcd60e51b815260040161043490610dff565b60405180910390fd5b6104483384846109e0565b50600192915050565b600454600090600160a01b900460ff161561047e5760405162461bcd60e51b815260040161043490610dff565b610489848484610b04565b6001600160a01b03841660009081526006602090815260408083203384529091529020548281101561050e5760405162461bcd60e51b815260206004820152602860248201527f42455032303a205472616e7366657220616d6f756e74206578636565647320616044820152676c6c6f77616e636560c01b6064820152608401610434565b61051b85338584036109e0565b506001949350505050565b600454600090600160a01b900460ff16156105535760405162461bcd60e51b815260040161043490610dff565b3360008181526006602090815260408083206001600160a01b038816845290915290205461044891908590610589908690610e29565b6109e0565b600454600160a01b900460ff166105de5760405162461bcd60e51b815260206004820152601460248201527314185d5cd8589b194e881b9bdd081c185d5cd95960621b6044820152606401610434565b6000546001600160a01b0316336001600160a01b0316146105fe57600080fd5b6004805460ff60a01b191690557f5db9ee0a495bf2e6ff9c91a7834c1ba4fdd244a5e8aa4e537bd38aeae4b073aa335b6040516001600160a01b03909116815260200160405180910390a1565b6000546001600160a01b0316336001600160a01b0316148061068057506003546001600160a01b0316336001600160a01b0316145b61068957600080fd5b6001600160a01b03811661069c57600080fd5b600180546001600160a01b0319166001600160a01b0392909216919091179055565b600454600160a01b900460ff16156106e85760405162461bcd60e51b815260040161043490610dff565b6000546001600160a01b0316336001600160a01b03161461070857600080fd5b6004805460ff60a01b1916600160a01b1790557f62e78cea01bee320cd4e420270b5ea74000d11b0c9f74754ebdbfc544b05a25861062e3390565b6000546001600160a01b0316336001600160a01b0316148061077857506003546001600160a01b0316336001600160a01b0316145b61078157600080fd5b6001600160a01b03811661079457600080fd5b600480546001600160a01b0319166001600160a01b0392909216919091179055565b60606009805461038490610e4f565b600454600090600160a01b900460ff16156107f25760405162461bcd60e51b815260040161043490610dff565b3360009081526006602090815260408083206001600160a01b0387168452909152902054828110156108745760405162461bcd60e51b815260206004820152602560248201527f42455032303a2044656372656173656420616c6c6f77616e63652062656c6f77604482015264207a65726f60d81b6064820152608401610434565b61088133858584036109e0565b5060019392505050565b6000546001600160a01b0316336001600160a01b0316146108ab57600080fd5b6001600160a01b0381166108be57600080fd5b600080546001600160a01b0319166001600160a01b0392909216919091179055565b600454600090600160a01b900460ff161561090d5760405162461bcd60e51b815260040161043490610dff565b610448338484610b04565b6000546001600160a01b0316336001600160a01b03161461093857600080fd5b6001600160a01b03811661094b57600080fd5b600380546001600160a01b0319166001600160a01b0392909216919091179055565b6000546001600160a01b0316336001600160a01b031614806109a257506003546001600160a01b0316336001600160a01b0316145b6109ab57600080fd5b6001600160a01b0381166109be57600080fd5b600280546001600160a01b0319166001600160a01b0392909216919091179055565b6001600160a01b038316610a425760405162461bcd60e51b8152602060048201526024808201527f42455032303a20417070726f76652066726f6d20746865207a65726f206164646044820152637265737360e01b6064820152608401610434565b6001600160a01b038216610aa35760405162461bcd60e51b815260206004820152602260248201527f42455032303a20417070726f766520746f20746865207a65726f206164647265604482015261737360f01b6064820152608401610434565b6001600160a01b0383811660008181526006602090815260408083209487168084529482529182902085905590518481527f8c5be1e5ebec7d5bd14f71427d1e84f3dd0314c0f7b2291e5b200ac8c7c3b925910160405180910390a3505050565b6001600160a01b038316610b685760405162461bcd60e51b815260206004820152602560248201527f42455032303a205472616e736665722066726f6d20746865207a65726f206164604482015264647265737360d81b6064820152608401610434565b6001600160a01b038216610bca5760405162461bcd60e51b815260206004820152602360248201527f42455032303a205472616e7366657220746f20746865207a65726f206164647260448201526265737360e81b6064820152608401610434565b6001600160a01b03831660009081526005602052604090205481811015610c425760405162461bcd60e51b815260206004820152602660248201527f42455032303a205472616e7366657220616d6f756e7420657863656564732062604482015265616c616e636560d01b6064820152608401610434565b6001600160a01b03808516600090815260056020526040808220858503905591851681529081208054849290610c79908490610e29565b92505081905550826001600160a01b0316846001600160a01b03167fddf252ad1be2c89b69c2b068fc378daa952ba7f163c4a11628f55a4df523b3ef84604051610cc591815260200190565b60405180910390a350505050565b80356001600160a01b0381168114610cea57600080fd5b919050565b600060208284031215610d0157600080fd5b610d0a82610cd3565b9392505050565b60008060408385031215610d2457600080fd5b610d2d83610cd3565b9150610d3b60208401610cd3565b90509250929050565b600080600060608486031215610d5957600080fd5b610d6284610cd3565b9250610d7060208501610cd3565b9150604084013590509250925092565b60008060408385031215610d9357600080fd5b610d9c83610cd3565b946020939093013593505050565b600060208083528351808285015260005b81811015610dd757858101830151858201604001528201610dbb565b81811115610de9576000604083870101525b50601f01601f1916929092016040019392505050565b60208082526010908201526f14185d5cd8589b194e881c185d5cd95960821b604082015260600190565b60008219821115610e4a57634e487b7160e01b600052601160045260246000fd5b500190565b600181811c90821680610e6357607f821691505b60208210811415610e8457634e487b7160e01b600052602260045260246000fd5b5091905056fea26469706673582212208369db6092fc55447bed52df8c90e2fbf570321b0c769f36127e279c6099946e64736f6c63430008070033",
    "sourcePath": "c:/Users/suwan/OneDrive/Desktop/School Stuff/CODE Uni/BSC/nbc-test-hardhat/contracts/BEP20/BEP20.sol",
    "compiler": {
        "name": "solc",
        "version": "0.8.7+commit.e28d00a7"
    },
    "functionHashes": {
        "admin()": "f851a440",
        "allowance(address,address)": "dd62ed3e",
        "approve(address,uint256)": "095ea7b3",
        "balanceOf(address)": "70a08231",
        "burner()": "27810b6e",
        "ceo()": "908921fc",
        "decimals()": "313ce567",
        "decreaseAllowance(address,uint256)": "a457c2d7",
        "increaseAllowance(address,uint256)": "39509351",
        "manager()": "481c6a75",
        "minter()": "07546172",
        "name()": "06fdde03",
        "newAdmin(address)": "a6ba31c1",
        "newBurner(address)": "f840f72b",
        "newCEO(address)": "a9917dbe",
        "newManager(address)": "906e9400",
        "newMinter(address)": "57341912",
        "pause()": "8456cb59",
        "paused()": "5c975abb",
        "symbol()": "95d89b41",
        "totalSupply()": "18160ddd",
        "transfer(address,uint256)": "a9059cbb",
        "transferFrom(address,address,uint256)": "23b872dd",
        "unpause()": "3f4ba83a"
    },
    "gasEstimates": {
        "creation": {
            "codeDepositCost": "755200",
            "executionCost": "infinite",
            "totalCost": "infinite"
        },
        "external": {
            "admin()": "2469",
            "allowance(address,address)": "infinite",
            "approve(address,uint256)": "26810",
            "balanceOf(address)": "2560",
            "burner()": "2471",
            "ceo()": "2426",
            "decimals()": "2312",
            "decreaseAllowance(address,uint256)": "29170",
            "increaseAllowance(address,uint256)": "29125",
            "manager()": "2426",
            "minter()": "2383",
            "name()": "infinite",
            "newAdmin(address)": "26786",
            "newBurner(address)": "29037",
            "newCEO(address)": "26830",
            "newManager(address)": "28994",
            "newMinter(address)": "29038",
            "pause()": "29818",
            "paused()": "2454",
            "symbol()": "infinite",
            "totalSupply()": "2371",
            "transfer(address,uint256)": "53349",
            "transferFrom(address,address,uint256)": "infinite",
            "unpause()": "29811"
        },
        "internal": {
            "_afterTokenTransfer(address,address,uint256)": "infinite",
            "_approve(address,address,uint256)": "infinite",
            "_beforeTokenTransfer(address,address,uint256)": "infinite",
            "_burn(address,uint256)": "infinite",
            "_mint(address,uint256)": "infinite",
            "_transfer(address,address,uint256)": "infinite"
        }
    }
}