{
    "contractName": "BEP20",
    "abi": [
        {
            "inputs": [
                {
                    "internalType": "string",
                    "name": "name_",
                    "type": "string"
                },
                {
                    "internalType": "string",
                    "name": "symbol_",
                    "type": "string"
                }
            ],
            "stateMutability": "nonpayable",
            "type": "constructor"
        },
        {
            "anonymous": false,
            "inputs": [
                {
                    "indexed": true,
                    "internalType": "address",
                    "name": "owner",
                    "type": "address"
                },
                {
                    "indexed": true,
                    "internalType": "address",
                    "name": "spender",
                    "type": "address"
                },
                {
                    "indexed": false,
                    "internalType": "uint256",
                    "name": "value",
                    "type": "uint256"
                }
            ],
            "name": "Approval",
            "type": "event"
        },
        {
            "anonymous": false,
            "inputs": [
                {
                    "indexed": true,
                    "internalType": "address",
                    "name": "_owner",
                    "type": "address"
                },
                {
                    "indexed": true,
                    "internalType": "address",
                    "name": "_spender",
                    "type": "address"
                },
                {
                    "indexed": false,
                    "internalType": "uint256",
                    "name": "_oldValue",
                    "type": "uint256"
                },
                {
                    "indexed": false,
                    "internalType": "uint256",
                    "name": "_value",
                    "type": "uint256"
                }
            ],
            "name": "Approved",
            "type": "event"
        },
        {
            "anonymous": false,
            "inputs": [
                {
                    "indexed": true,
                    "internalType": "address",
                    "name": "by",
                    "type": "address"
                },
                {
                    "indexed": true,
                    "internalType": "address",
                    "name": "from",
                    "type": "address"
                },
                {
                    "indexed": false,
                    "internalType": "uint256",
                    "name": "value",
                    "type": "uint256"
                }
            ],
            "name": "Burnt",
            "type": "event"
        },
        {
            "anonymous": false,
            "inputs": [
                {
                    "indexed": true,
                    "internalType": "address",
                    "name": "from",
                    "type": "address"
                },
                {
                    "indexed": true,
                    "internalType": "address",
                    "name": "to",
                    "type": "address"
                },
                {
                    "indexed": false,
                    "internalType": "uint256",
                    "name": "value",
                    "type": "uint256"
                }
            ],
            "name": "Minted",
            "type": "event"
        },
        {
            "anonymous": false,
            "inputs": [
                {
                    "indexed": true,
                    "internalType": "address",
                    "name": "from",
                    "type": "address"
                },
                {
                    "indexed": true,
                    "internalType": "address",
                    "name": "to",
                    "type": "address"
                },
                {
                    "indexed": false,
                    "internalType": "uint256",
                    "name": "value",
                    "type": "uint256"
                }
            ],
            "name": "Transfer",
            "type": "event"
        },
        {
            "anonymous": false,
            "inputs": [
                {
                    "indexed": true,
                    "internalType": "address",
                    "name": "_by",
                    "type": "address"
                },
                {
                    "indexed": true,
                    "internalType": "address",
                    "name": "_from",
                    "type": "address"
                },
                {
                    "indexed": true,
                    "internalType": "address",
                    "name": "_to",
                    "type": "address"
                },
                {
                    "indexed": false,
                    "internalType": "uint256",
                    "name": "_value",
                    "type": "uint256"
                }
            ],
            "name": "Transferred",
            "type": "event"
        },
        {
            "inputs": [],
            "name": "admin",
            "outputs": [
                {
                    "internalType": "address",
                    "name": "",
                    "type": "address"
                }
            ],
            "stateMutability": "view",
            "type": "function"
        },
        {
            "inputs": [
                {
                    "internalType": "address",
                    "name": "_owner",
                    "type": "address"
                },
                {
                    "internalType": "address",
                    "name": "spender",
                    "type": "address"
                }
            ],
            "name": "allowance",
            "outputs": [
                {
                    "internalType": "uint256",
                    "name": "",
                    "type": "uint256"
                }
            ],
            "stateMutability": "view",
            "type": "function"
        },
        {
            "inputs": [
                {
                    "internalType": "address",
                    "name": "spender",
                    "type": "address"
                },
                {
                    "internalType": "uint256",
                    "name": "amount",
                    "type": "uint256"
                }
            ],
            "name": "approve",
            "outputs": [
                {
                    "internalType": "bool",
                    "name": "",
                    "type": "bool"
                }
            ],
            "stateMutability": "nonpayable",
            "type": "function"
        },
        {
            "inputs": [
                {
                    "internalType": "address",
                    "name": "account",
                    "type": "address"
                }
            ],
            "name": "balanceOf",
            "outputs": [
                {
                    "internalType": "uint256",
                    "name": "",
                    "type": "uint256"
                }
            ],
            "stateMutability": "view",
            "type": "function"
        },
        {
            "inputs": [],
            "name": "burner",
            "outputs": [
                {
                    "internalType": "address",
                    "name": "",
                    "type": "address"
                }
            ],
            "stateMutability": "view",
            "type": "function"
        },
        {
            "inputs": [],
            "name": "ceo",
            "outputs": [
                {
                    "internalType": "address",
                    "name": "",
                    "type": "address"
                }
            ],
            "stateMutability": "view",
            "type": "function"
        },
        {
            "inputs": [],
            "name": "decimals",
            "outputs": [
                {
                    "internalType": "uint8",
                    "name": "",
                    "type": "uint8"
                }
            ],
            "stateMutability": "view",
            "type": "function"
        },
        {
            "inputs": [
                {
                    "internalType": "address",
                    "name": "spender",
                    "type": "address"
                },
                {
                    "internalType": "uint256",
                    "name": "subtractedValue",
                    "type": "uint256"
                }
            ],
            "name": "decreaseAllowance",
            "outputs": [
                {
                    "internalType": "bool",
                    "name": "",
                    "type": "bool"
                }
            ],
            "stateMutability": "nonpayable",
            "type": "function"
        },
        {
            "inputs": [
                {
                    "internalType": "address",
                    "name": "spender",
                    "type": "address"
                },
                {
                    "internalType": "uint256",
                    "name": "addedValue",
                    "type": "uint256"
                }
            ],
            "name": "increaseAllowance",
            "outputs": [
                {
                    "internalType": "bool",
                    "name": "",
                    "type": "bool"
                }
            ],
            "stateMutability": "nonpayable",
            "type": "function"
        },
        {
            "inputs": [],
            "name": "manager",
            "outputs": [
                {
                    "internalType": "address",
                    "name": "",
                    "type": "address"
                }
            ],
            "stateMutability": "view",
            "type": "function"
        },
        {
            "inputs": [],
            "name": "minter",
            "outputs": [
                {
                    "internalType": "address",
                    "name": "",
                    "type": "address"
                }
            ],
            "stateMutability": "view",
            "type": "function"
        },
        {
            "inputs": [],
            "name": "name",
            "outputs": [
                {
                    "internalType": "string",
                    "name": "",
                    "type": "string"
                }
            ],
            "stateMutability": "view",
            "type": "function"
        },
        {
            "inputs": [
                {
                    "internalType": "address",
                    "name": "_newAdmin",
                    "type": "address"
                }
            ],
            "name": "newAdmin",
            "outputs": [],
            "stateMutability": "nonpayable",
            "type": "function"
        },
        {
            "inputs": [
                {
                    "internalType": "address",
                    "name": "_newBurner",
                    "type": "address"
                }
            ],
            "name": "newBurner",
            "outputs": [],
            "stateMutability": "nonpayable",
            "type": "function"
        },
        {
            "inputs": [
                {
                    "internalType": "address",
                    "name": "_newCEO",
                    "type": "address"
                }
            ],
            "name": "newCEO",
            "outputs": [],
            "stateMutability": "nonpayable",
            "type": "function"
        },
        {
            "inputs": [
                {
                    "internalType": "address",
                    "name": "_newManager",
                    "type": "address"
                }
            ],
            "name": "newManager",
            "outputs": [],
            "stateMutability": "nonpayable",
            "type": "function"
        },
        {
            "inputs": [
                {
                    "internalType": "address",
                    "name": "_newMinter",
                    "type": "address"
                }
            ],
            "name": "newMinter",
            "outputs": [],
            "stateMutability": "nonpayable",
            "type": "function"
        },
        {
            "inputs": [],
            "name": "symbol",
            "outputs": [
                {
                    "internalType": "string",
                    "name": "",
                    "type": "string"
                }
            ],
            "stateMutability": "view",
            "type": "function"
        },
        {
            "inputs": [],
            "name": "totalSupply",
            "outputs": [
                {
                    "internalType": "uint256",
                    "name": "",
                    "type": "uint256"
                }
            ],
            "stateMutability": "view",
            "type": "function"
        },
        {
            "inputs": [
                {
                    "internalType": "address",
                    "name": "recipient",
                    "type": "address"
                },
                {
                    "internalType": "uint256",
                    "name": "amount",
                    "type": "uint256"
                }
            ],
            "name": "transfer",
            "outputs": [
                {
                    "internalType": "bool",
                    "name": "",
                    "type": "bool"
                }
            ],
            "stateMutability": "nonpayable",
            "type": "function"
        },
        {
            "inputs": [
                {
                    "internalType": "address",
                    "name": "sender",
                    "type": "address"
                },
                {
                    "internalType": "address",
                    "name": "recipient",
                    "type": "address"
                },
                {
                    "internalType": "uint256",
                    "name": "amount",
                    "type": "uint256"
                }
            ],
            "name": "transferFrom",
            "outputs": [
                {
                    "internalType": "bool",
                    "name": "",
                    "type": "bool"
                }
            ],
            "stateMutability": "nonpayable",
            "type": "function"
        }
    ],
    "bytecode": "60806040523480156200001157600080fd5b5060405162000ef438038062000ef4833981016040819052620000349162000212565b60008054336001600160a01b03199182168117909255600180548216831790556002805482168317905560038054821683179055600480549091169091179055815162000089906008906020850190620000b5565b5080516200009f906009906020840190620000b5565b5050600a805460ff1916601217905550620002cf565b828054620000c3906200027c565b90600052602060002090601f016020900481019282620000e7576000855562000132565b82601f106200010257805160ff191683800117855562000132565b8280016001018555821562000132579182015b828111156200013257825182559160200191906001019062000115565b506200014092915062000144565b5090565b5b8082111562000140576000815560010162000145565b600082601f8301126200016d57600080fd5b81516001600160401b03808211156200018a576200018a620002b9565b604051601f8301601f19908116603f01168101908282118183101715620001b557620001b5620002b9565b81604052838152602092508683858801011115620001d257600080fd5b600091505b83821015620001f65785820183015181830184015290820190620001d7565b83821115620002085760008385830101525b9695505050505050565b600080604083850312156200022657600080fd5b82516001600160401b03808211156200023e57600080fd5b6200024c868387016200015b565b935060208501519150808211156200026357600080fd5b5062000272858286016200015b565b9150509250929050565b600181811c908216806200029157607f821691505b60208210811415620002b357634e487b7160e01b600052602260045260246000fd5b50919050565b634e487b7160e01b600052604160045260246000fd5b610c1580620002df6000396000f3fe608060405234801561001057600080fd5b50600436106101375760003560e01c806370a08231116100b8578063a6ba31c11161007c578063a6ba31c11461029a578063a9059cbb146102ad578063a9917dbe146102c0578063dd62ed3e146102d3578063f840f72b1461030c578063f851a4401461031f57600080fd5b806370a0823114610230578063906e940014610259578063908921fc1461026c57806395d89b411461027f578063a457c2d71461028757600080fd5b806327810b6e116100ff57806327810b6e146101cd578063313ce567146101e057806339509351146101f5578063481c6a7514610208578063573419121461021b57600080fd5b806306fdde031461013c578063075461721461015a578063095ea7b31461018557806318160ddd146101a857806323b872dd146101ba575b600080fd5b610144610332565b6040516101519190610b29565b60405180910390f35b60015461016d906001600160a01b031681565b6040516001600160a01b039091168152602001610151565b610198610193366004610aff565b6103c4565b6040519015158152602001610151565b6007545b604051908152602001610151565b6101986101c8366004610ac3565b6103da565b60025461016d906001600160a01b031681565b600a5460405160ff9091168152602001610151565b610198610203366004610aff565b610489565b60045461016d906001600160a01b031681565b61022e610229366004610a6e565b6104c5565b005b6101ac61023e366004610a6e565b6001600160a01b031660009081526005602052604090205490565b61022e610267366004610a6e565b610538565b60035461016d906001600160a01b031681565b61014461058d565b610198610295366004610aff565b61059c565b61022e6102a8366004610a6e565b610635565b6101986102bb366004610aff565b61068a565b61022e6102ce366004610a6e565b610697565b6101ac6102e1366004610a90565b6001600160a01b03918216600090815260066020908152604080832093909416825291909152205490565b61022e61031a366004610a6e565b6106ec565b60005461016d906001600160a01b031681565b60606008805461034190610ba4565b80601f016020809104026020016040519081016040528092919081815260200182805461036d90610ba4565b80156103ba5780601f1061038f576101008083540402835291602001916103ba565b820191906000526020600020905b81548152906001019060200180831161039d57829003601f168201915b5050505050905090565b60006103d133848461075f565b50600192915050565b60006103e7848484610883565b6001600160a01b0384166000908152600660209081526040808320338452909152902054828110156104715760405162461bcd60e51b815260206004820152602860248201527f42455032303a205472616e7366657220616d6f756e74206578636565647320616044820152676c6c6f77616e636560c01b60648201526084015b60405180910390fd5b61047e853385840361075f565b506001949350505050565b3360008181526006602090815260408083206001600160a01b038716845290915281205490916103d19185906104c0908690610b7e565b61075f565b6000546001600160a01b0316336001600160a01b031614806104fa57506003546001600160a01b0316336001600160a01b0316145b61050357600080fd5b6001600160a01b03811661051657600080fd5b600180546001600160a01b0319166001600160a01b0392909216919091179055565b6000546001600160a01b0316336001600160a01b03161461055857600080fd5b6001600160a01b03811661056b57600080fd5b600480546001600160a01b0319166001600160a01b0392909216919091179055565b60606009805461034190610ba4565b3360009081526006602090815260408083206001600160a01b03861684529091528120548281101561061e5760405162461bcd60e51b815260206004820152602560248201527f42455032303a2044656372656173656420616c6c6f77616e63652062656c6f77604482015264207a65726f60d81b6064820152608401610468565b61062b338585840361075f565b5060019392505050565b6000546001600160a01b0316336001600160a01b03161461065557600080fd5b6001600160a01b03811661066857600080fd5b600080546001600160a01b0319166001600160a01b0392909216919091179055565b60006103d1338484610883565b6000546001600160a01b0316336001600160a01b0316146106b757600080fd5b6001600160a01b0381166106ca57600080fd5b600380546001600160a01b0319166001600160a01b0392909216919091179055565b6000546001600160a01b0316336001600160a01b0316148061072157506003546001600160a01b0316336001600160a01b0316145b61072a57600080fd5b6001600160a01b03811661073d57600080fd5b600280546001600160a01b0319166001600160a01b0392909216919091179055565b6001600160a01b0383166107c15760405162461bcd60e51b8152602060048201526024808201527f42455032303a20417070726f76652066726f6d20746865207a65726f206164646044820152637265737360e01b6064820152608401610468565b6001600160a01b0382166108225760405162461bcd60e51b815260206004820152602260248201527f42455032303a20417070726f766520746f20746865207a65726f206164647265604482015261737360f01b6064820152608401610468565b6001600160a01b0383811660008181526006602090815260408083209487168084529482529182902085905590518481527f8c5be1e5ebec7d5bd14f71427d1e84f3dd0314c0f7b2291e5b200ac8c7c3b925910160405180910390a3505050565b6001600160a01b0383166108e75760405162461bcd60e51b815260206004820152602560248201527f42455032303a205472616e736665722066726f6d20746865207a65726f206164604482015264647265737360d81b6064820152608401610468565b6001600160a01b0382166109495760405162461bcd60e51b815260206004820152602360248201527f42455032303a205472616e7366657220746f20746865207a65726f206164647260448201526265737360e81b6064820152608401610468565b6001600160a01b038316600090815260056020526040902054818110156109c15760405162461bcd60e51b815260206004820152602660248201527f42455032303a205472616e7366657220616d6f756e7420657863656564732062604482015265616c616e636560d01b6064820152608401610468565b6001600160a01b038085166000908152600560205260408082208585039055918516815290812080548492906109f8908490610b7e565b92505081905550826001600160a01b0316846001600160a01b03167fddf252ad1be2c89b69c2b068fc378daa952ba7f163c4a11628f55a4df523b3ef84604051610a4491815260200190565b60405180910390a350505050565b80356001600160a01b0381168114610a6957600080fd5b919050565b600060208284031215610a8057600080fd5b610a8982610a52565b9392505050565b60008060408385031215610aa357600080fd5b610aac83610a52565b9150610aba60208401610a52565b90509250929050565b600080600060608486031215610ad857600080fd5b610ae184610a52565b9250610aef60208501610a52565b9150604084013590509250925092565b60008060408385031215610b1257600080fd5b610b1b83610a52565b946020939093013593505050565b600060208083528351808285015260005b81811015610b5657858101830151858201604001528201610b3a565b81811115610b68576000604083870101525b50601f01601f1916929092016040019392505050565b60008219821115610b9f57634e487b7160e01b600052601160045260246000fd5b500190565b600181811c90821680610bb857607f821691505b60208210811415610bd957634e487b7160e01b600052602260045260246000fd5b5091905056fea2646970667358221220f43385ba085ce6a6fd6e9a127e0cee7da6e018bfee02a66a5f26c2fb1e29137b64736f6c63430008070033",
    "sourcePath": "c:/Users/suwan/OneDrive/Desktop/School Stuff/CODE Uni/BSC/nbc-test-hardhat/contracts/BEP20/BEP20.sol",
    "compiler": {
        "name": "solc",
        "version": "0.8.7+commit.e28d00a7"
    },
    "functionHashes": {
        "admin()": "f851a440",
        "allowance(address,address)": "dd62ed3e",
        "approve(address,uint256)": "095ea7b3",
        "balanceOf(address)": "70a08231",
        "burner()": "27810b6e",
        "ceo()": "908921fc",
        "decimals()": "313ce567",
        "decreaseAllowance(address,uint256)": "a457c2d7",
        "increaseAllowance(address,uint256)": "39509351",
        "manager()": "481c6a75",
        "minter()": "07546172",
        "name()": "06fdde03",
        "newAdmin(address)": "a6ba31c1",
        "newBurner(address)": "f840f72b",
        "newCEO(address)": "a9917dbe",
        "newManager(address)": "906e9400",
        "newMinter(address)": "57341912",
        "symbol()": "95d89b41",
        "totalSupply()": "18160ddd",
        "transfer(address,uint256)": "a9059cbb",
        "transferFrom(address,address,uint256)": "23b872dd"
    },
    "gasEstimates": {
        "creation": {
            "codeDepositCost": "618600",
            "executionCost": "infinite",
            "totalCost": "infinite"
        },
        "external": {
            "admin()": "2469",
            "allowance(address,address)": "infinite",
            "approve(address,uint256)": "24664",
            "balanceOf(address)": "2560",
            "burner()": "2360",
            "ceo()": "2404",
            "decimals()": "2334",
            "decreaseAllowance(address,uint256)": "26999",
            "increaseAllowance(address,uint256)": "27001",
            "manager()": "2426",
            "minter()": "2383",
            "name()": "infinite",
            "newAdmin(address)": "26786",
            "newBurner(address)": "29037",
            "newCEO(address)": "26830",
            "newManager(address)": "26809",
            "newMinter(address)": "29038",
            "symbol()": "infinite",
            "totalSupply()": "2371",
            "transfer(address,uint256)": "51203",
            "transferFrom(address,address,uint256)": "infinite"
        },
        "internal": {
            "_afterTokenTransfer(address,address,uint256)": "infinite",
            "_approve(address,address,uint256)": "infinite",
            "_beforeTokenTransfer(address,address,uint256)": "infinite",
            "_burn(address,uint256)": "infinite",
            "_mint(address,uint256)": "infinite",
            "_transfer(address,address,uint256)": "infinite"
        }
    }
}